{
  "contractName": "ERC20Treasury",
  "abi": [
    {
      "inputs": [
        {
          "internalType": "string",
          "name": "_name",
          "type": "string"
        },
        {
          "internalType": "string",
          "name": "_symbol",
          "type": "string"
        },
        {
          "internalType": "uint256",
          "name": "_cappedSupply",
          "type": "uint256"
        },
        {
          "internalType": "uint256",
          "name": "_initialTreasury",
          "type": "uint256"
        }
      ],
      "stateMutability": "nonpayable",
      "type": "constructor"
    },
    {
      "anonymous": false,
      "inputs": [
        {
          "indexed": true,
          "internalType": "address",
          "name": "owner",
          "type": "address"
        },
        {
          "indexed": true,
          "internalType": "address",
          "name": "spender",
          "type": "address"
        },
        {
          "indexed": false,
          "internalType": "uint256",
          "name": "value",
          "type": "uint256"
        }
      ],
      "name": "Approval",
      "type": "event"
    },
    {
      "anonymous": false,
      "inputs": [
        {
          "indexed": true,
          "internalType": "address",
          "name": "previousOwner",
          "type": "address"
        },
        {
          "indexed": true,
          "internalType": "address",
          "name": "newOwner",
          "type": "address"
        }
      ],
      "name": "OwnershipTransferred",
      "type": "event"
    },
    {
      "anonymous": false,
      "inputs": [
        {
          "indexed": true,
          "internalType": "bytes32",
          "name": "role",
          "type": "bytes32"
        },
        {
          "indexed": true,
          "internalType": "bytes32",
          "name": "previousAdminRole",
          "type": "bytes32"
        },
        {
          "indexed": true,
          "internalType": "bytes32",
          "name": "newAdminRole",
          "type": "bytes32"
        }
      ],
      "name": "RoleAdminChanged",
      "type": "event"
    },
    {
      "anonymous": false,
      "inputs": [
        {
          "indexed": true,
          "internalType": "bytes32",
          "name": "role",
          "type": "bytes32"
        },
        {
          "indexed": true,
          "internalType": "address",
          "name": "account",
          "type": "address"
        },
        {
          "indexed": true,
          "internalType": "address",
          "name": "sender",
          "type": "address"
        }
      ],
      "name": "RoleGranted",
      "type": "event"
    },
    {
      "anonymous": false,
      "inputs": [
        {
          "indexed": true,
          "internalType": "bytes32",
          "name": "role",
          "type": "bytes32"
        },
        {
          "indexed": true,
          "internalType": "address",
          "name": "account",
          "type": "address"
        },
        {
          "indexed": true,
          "internalType": "address",
          "name": "sender",
          "type": "address"
        }
      ],
      "name": "RoleRevoked",
      "type": "event"
    },
    {
      "anonymous": false,
      "inputs": [
        {
          "indexed": true,
          "internalType": "address",
          "name": "from",
          "type": "address"
        },
        {
          "indexed": true,
          "internalType": "address",
          "name": "to",
          "type": "address"
        },
        {
          "indexed": false,
          "internalType": "uint256",
          "name": "value",
          "type": "uint256"
        }
      ],
      "name": "Transfer",
      "type": "event"
    },
    {
      "inputs": [],
      "name": "BATCH_OWNER",
      "outputs": [
        {
          "internalType": "bytes32",
          "name": "",
          "type": "bytes32"
        }
      ],
      "stateMutability": "view",
      "type": "function"
    },
    {
      "inputs": [],
      "name": "Bonds",
      "outputs": [
        {
          "internalType": "uint256",
          "name": "",
          "type": "uint256"
        }
      ],
      "stateMutability": "view",
      "type": "function"
    },
    {
      "inputs": [],
      "name": "DEFAULT_ADMIN_ROLE",
      "outputs": [
        {
          "internalType": "bytes32",
          "name": "",
          "type": "bytes32"
        }
      ],
      "stateMutability": "view",
      "type": "function"
    },
    {
      "inputs": [],
      "name": "Treasury",
      "outputs": [
        {
          "internalType": "uint256",
          "name": "",
          "type": "uint256"
        }
      ],
      "stateMutability": "view",
      "type": "function"
    },
    {
      "inputs": [],
      "name": "UnmintedSupply",
      "outputs": [
        {
          "internalType": "uint256",
          "name": "",
          "type": "uint256"
        }
      ],
      "stateMutability": "view",
      "type": "function"
    },
    {
      "inputs": [
        {
          "internalType": "address",
          "name": "owner",
          "type": "address"
        },
        {
          "internalType": "address",
          "name": "spender",
          "type": "address"
        }
      ],
      "name": "allowance",
      "outputs": [
        {
          "internalType": "uint256",
          "name": "",
          "type": "uint256"
        }
      ],
      "stateMutability": "view",
      "type": "function"
    },
    {
      "inputs": [
        {
          "internalType": "address",
          "name": "spender",
          "type": "address"
        },
        {
          "internalType": "uint256",
          "name": "amount",
          "type": "uint256"
        }
      ],
      "name": "approve",
      "outputs": [
        {
          "internalType": "bool",
          "name": "",
          "type": "bool"
        }
      ],
      "stateMutability": "nonpayable",
      "type": "function"
    },
    {
      "inputs": [
        {
          "internalType": "address",
          "name": "account",
          "type": "address"
        }
      ],
      "name": "balanceOf",
      "outputs": [
        {
          "internalType": "uint256",
          "name": "",
          "type": "uint256"
        }
      ],
      "stateMutability": "view",
      "type": "function"
    },
    {
      "inputs": [],
      "name": "cap",
      "outputs": [
        {
          "internalType": "uint256",
          "name": "",
          "type": "uint256"
        }
      ],
      "stateMutability": "view",
      "type": "function"
    },
    {
      "inputs": [],
      "name": "decimals",
      "outputs": [
        {
          "internalType": "uint8",
          "name": "",
          "type": "uint8"
        }
      ],
      "stateMutability": "view",
      "type": "function"
    },
    {
      "inputs": [
        {
          "internalType": "address",
          "name": "spender",
          "type": "address"
        },
        {
          "internalType": "uint256",
          "name": "subtractedValue",
          "type": "uint256"
        }
      ],
      "name": "decreaseAllowance",
      "outputs": [
        {
          "internalType": "bool",
          "name": "",
          "type": "bool"
        }
      ],
      "stateMutability": "nonpayable",
      "type": "function"
    },
    {
      "inputs": [
        {
          "internalType": "bytes32",
          "name": "role",
          "type": "bytes32"
        }
      ],
      "name": "getRoleAdmin",
      "outputs": [
        {
          "internalType": "bytes32",
          "name": "",
          "type": "bytes32"
        }
      ],
      "stateMutability": "view",
      "type": "function"
    },
    {
      "inputs": [
        {
          "internalType": "bytes32",
          "name": "role",
          "type": "bytes32"
        },
        {
          "internalType": "uint256",
          "name": "index",
          "type": "uint256"
        }
      ],
      "name": "getRoleMember",
      "outputs": [
        {
          "internalType": "address",
          "name": "",
          "type": "address"
        }
      ],
      "stateMutability": "view",
      "type": "function"
    },
    {
      "inputs": [
        {
          "internalType": "bytes32",
          "name": "role",
          "type": "bytes32"
        }
      ],
      "name": "getRoleMemberCount",
      "outputs": [
        {
          "internalType": "uint256",
          "name": "",
          "type": "uint256"
        }
      ],
      "stateMutability": "view",
      "type": "function"
    },
    {
      "inputs": [
        {
          "internalType": "bytes32",
          "name": "role",
          "type": "bytes32"
        },
        {
          "internalType": "address",
          "name": "account",
          "type": "address"
        }
      ],
      "name": "grantRole",
      "outputs": [],
      "stateMutability": "nonpayable",
      "type": "function"
    },
    {
      "inputs": [
        {
          "internalType": "bytes32",
          "name": "role",
          "type": "bytes32"
        },
        {
          "internalType": "address",
          "name": "account",
          "type": "address"
        }
      ],
      "name": "hasRole",
      "outputs": [
        {
          "internalType": "bool",
          "name": "",
          "type": "bool"
        }
      ],
      "stateMutability": "view",
      "type": "function"
    },
    {
      "inputs": [
        {
          "internalType": "address",
          "name": "spender",
          "type": "address"
        },
        {
          "internalType": "uint256",
          "name": "addedValue",
          "type": "uint256"
        }
      ],
      "name": "increaseAllowance",
      "outputs": [
        {
          "internalType": "bool",
          "name": "",
          "type": "bool"
        }
      ],
      "stateMutability": "nonpayable",
      "type": "function"
    },
    {
      "inputs": [],
      "name": "name",
      "outputs": [
        {
          "internalType": "string",
          "name": "",
          "type": "string"
        }
      ],
      "stateMutability": "view",
      "type": "function"
    },
    {
      "inputs": [],
      "name": "owner",
      "outputs": [
        {
          "internalType": "address",
          "name": "",
          "type": "address"
        }
      ],
      "stateMutability": "view",
      "type": "function"
    },
    {
      "inputs": [],
      "name": "renounceOwnership",
      "outputs": [],
      "stateMutability": "nonpayable",
      "type": "function"
    },
    {
      "inputs": [
        {
          "internalType": "bytes32",
          "name": "role",
          "type": "bytes32"
        },
        {
          "internalType": "address",
          "name": "account",
          "type": "address"
        }
      ],
      "name": "renounceRole",
      "outputs": [],
      "stateMutability": "nonpayable",
      "type": "function"
    },
    {
      "inputs": [
        {
          "internalType": "bytes32",
          "name": "role",
          "type": "bytes32"
        },
        {
          "internalType": "address",
          "name": "account",
          "type": "address"
        }
      ],
      "name": "revokeRole",
      "outputs": [],
      "stateMutability": "nonpayable",
      "type": "function"
    },
    {
      "inputs": [],
      "name": "symbol",
      "outputs": [
        {
          "internalType": "string",
          "name": "",
          "type": "string"
        }
      ],
      "stateMutability": "view",
      "type": "function"
    },
    {
      "inputs": [],
      "name": "totalSupply",
      "outputs": [
        {
          "internalType": "uint256",
          "name": "",
          "type": "uint256"
        }
      ],
      "stateMutability": "view",
      "type": "function"
    },
    {
      "inputs": [
        {
          "internalType": "address",
          "name": "recipient",
          "type": "address"
        },
        {
          "internalType": "uint256",
          "name": "amount",
          "type": "uint256"
        }
      ],
      "name": "transfer",
      "outputs": [
        {
          "internalType": "bool",
          "name": "",
          "type": "bool"
        }
      ],
      "stateMutability": "nonpayable",
      "type": "function"
    },
    {
      "inputs": [
        {
          "internalType": "address",
          "name": "sender",
          "type": "address"
        },
        {
          "internalType": "address",
          "name": "recipient",
          "type": "address"
        },
        {
          "internalType": "uint256",
          "name": "amount",
          "type": "uint256"
        }
      ],
      "name": "transferFrom",
      "outputs": [
        {
          "internalType": "bool",
          "name": "",
          "type": "bool"
        }
      ],
      "stateMutability": "nonpayable",
      "type": "function"
    },
    {
      "inputs": [
        {
          "internalType": "address",
          "name": "newOwner",
          "type": "address"
        }
      ],
      "name": "transferOwnership",
      "outputs": [],
      "stateMutability": "nonpayable",
      "type": "function"
    },
    {
      "inputs": [
        {
          "internalType": "address",
          "name": "_account",
          "type": "address"
        }
      ],
      "name": "addBatchOwnerRole",
      "outputs": [],
      "stateMutability": "nonpayable",
      "type": "function"
    },
    {
      "inputs": [],
      "name": "removeBatchOwnerRole",
      "outputs": [],
      "stateMutability": "nonpayable",
      "type": "function"
    },
    {
      "inputs": [],
      "name": "totalTreasury",
      "outputs": [
        {
          "internalType": "uint256",
          "name": "",
          "type": "uint256"
        }
      ],
      "stateMutability": "view",
      "type": "function"
    },
    {
      "inputs": [],
      "name": "totalBonds",
      "outputs": [
        {
          "internalType": "uint256",
          "name": "",
          "type": "uint256"
        }
      ],
      "stateMutability": "view",
      "type": "function"
    },
    {
      "inputs": [],
      "name": "availableBonds",
      "outputs": [
        {
          "internalType": "uint256",
          "name": "",
          "type": "uint256"
        }
      ],
      "stateMutability": "view",
      "type": "function"
    },
    {
      "inputs": [
        {
          "internalType": "uint256",
          "name": "amount",
          "type": "uint256"
        }
      ],
      "name": "increaseTreasuryFromUnmintedBonds",
      "outputs": [],
      "stateMutability": "nonpayable",
      "type": "function"
    },
    {
      "inputs": [
        {
          "internalType": "address",
          "name": "_batchOwner",
          "type": "address"
        },
        {
          "internalType": "uint256",
          "name": "amount",
          "type": "uint256"
        }
      ],
      "name": "increaseTreasuryFromBatch",
      "outputs": [],
      "stateMutability": "nonpayable",
      "type": "function"
    },
    {
      "inputs": [
        {
          "internalType": "address",
          "name": "batch",
          "type": "address"
        },
        {
          "internalType": "uint256",
          "name": "amount",
          "type": "uint256"
        }
      ],
      "name": "withdrawFromTreasuryToBatch",
      "outputs": [],
      "stateMutability": "nonpayable",
      "type": "function"
    }
  ],
  "bytecode": "0x60806040523480156200001157600080fd5b506040516200371b3803806200371b833981810160405260808110156200003757600080fd5b81019080805160405193929190846401000000008211156200005857600080fd5b838201915060208201858111156200006f57600080fd5b82518660018202830111640100000000821117156200008d57600080fd5b8083526020830192505050908051906020019080838360005b83811015620000c3578082015181840152602081019050620000a6565b50505050905090810190601f168015620000f15780820380516001836020036101000a031916815260200191505b50604052602001805160405193929190846401000000008211156200011557600080fd5b838201915060208201858111156200012c57600080fd5b82518660018202830111640100000000821117156200014a57600080fd5b8083526020830192505050908051906020019080838360005b838110156200018057808201518184015260208101905062000163565b50505050905090810190601f168015620001ae5780820380516001836020036101000a031916815260200191505b5060405260200180519060200190929190805190602001909291905050508184848160039080519060200190620001e7929190620009bd565b50806004908051906020019062000200929190620009bd565b506012600560006101000a81548160ff021916908360ff16021790555050506000811162000296576040517f08c379a00000000000000000000000000000000000000000000000000000000081526004018080602001828103825260158152602001807f45524332304361707065643a206361702069732030000000000000000000000081525060200191505060405180910390fd5b80600681905550506000620002b0620003f660201b60201c565b905080600760006101000a81548173ffffffffffffffffffffffffffffffffffffffff021916908373ffffffffffffffffffffffffffffffffffffffff1602179055508073ffffffffffffffffffffffffffffffffffffffff16600073ffffffffffffffffffffffffffffffffffffffff167f8be0079c531659141344cd1fd0a4f28419497f9722a3daafe3b4186f6b6457e060405160405180910390a35080600981905550620003776200036a620003fe60201b60201c565b826200042860201b60201c565b62000393600954836200060660201b62001f581790919060201c565b600a81905550620003d1620003ad6200068a60201b60201c565b620003bd6200069460201b60201c565b6200060660201b62001f581790919060201c565b600b81905550620003ec6000801b336200069e60201b60201c565b5050505062000a6c565b600033905090565b6000600760009054906101000a900473ffffffffffffffffffffffffffffffffffffffff16905090565b600073ffffffffffffffffffffffffffffffffffffffff168273ffffffffffffffffffffffffffffffffffffffff161415620004cc576040517f08c379a000000000000000000000000000000000000000000000000000000000815260040180806020018281038252601f8152602001807f45524332303a206d696e7420746f20746865207a65726f20616464726573730081525060200191505060405180910390fd5b620004e060008383620006b460201b60201c565b620004fc81600254620007b660201b62001ed01790919060201c565b6002819055506200055a816000808573ffffffffffffffffffffffffffffffffffffffff1673ffffffffffffffffffffffffffffffffffffffff16815260200190815260200160002054620007b660201b62001ed01790919060201c565b6000808473ffffffffffffffffffffffffffffffffffffffff1673ffffffffffffffffffffffffffffffffffffffff168152602001908152602001600020819055508173ffffffffffffffffffffffffffffffffffffffff16600073ffffffffffffffffffffffffffffffffffffffff167fddf252ad1be2c89b69c2b068fc378daa952ba7f163c4a11628f55a4df523b3ef836040518082815260200191505060405180910390a35050565b6000828211156200067f576040517f08c379a000000000000000000000000000000000000000000000000000000000815260040180806020018281038252601e8152602001807f536166654d6174683a207375627472616374696f6e206f766572666c6f77000081525060200191505060405180910390fd5b818303905092915050565b6000600254905090565b6000600654905090565b620006b082826200083f60201b60201c565b5050565b620006cc838383620008e360201b620028971760201c565b600073ffffffffffffffffffffffffffffffffffffffff168373ffffffffffffffffffffffffffffffffffffffff161415620007b157620007126200069460201b60201c565b6200073b82620007276200068a60201b60201c565b620007b660201b62001ed01790919060201c565b1115620007b0576040517f08c379a00000000000000000000000000000000000000000000000000000000081526004018080602001828103825260198152602001807f45524332304361707065643a206361702065786365656465640000000000000081525060200191505060405180910390fd5b5b505050565b60008082840190508381101562000835576040517f08c379a000000000000000000000000000000000000000000000000000000000815260040180806020018281038252601b8152602001807f536166654d6174683a206164646974696f6e206f766572666c6f77000000000081525060200191505060405180910390fd5b8091505092915050565b6200086e8160086000858152602001908152602001600020600001620008e860201b620027801790919060201c565b15620008df5762000884620003f660201b60201c565b73ffffffffffffffffffffffffffffffffffffffff168173ffffffffffffffffffffffffffffffffffffffff16837f2f8788117e7eff1d82e926ec794901d17c78024a50270940304540a733656f0d60405160405180910390a45b5050565b505050565b600062000918836000018373ffffffffffffffffffffffffffffffffffffffff1660001b6200092060201b60201c565b905092915050565b60006200093483836200099a60201b60201c565b6200098f57826000018290806001815401808255809150506001900390600052602060002001600090919091909150558260000180549050836001016000848152602001908152602001600020819055506001905062000994565b600090505b92915050565b600080836001016000848152602001908152602001600020541415905092915050565b828054600181600116156101000203166002900490600052602060002090601f016020900481019282601f1062000a0057805160ff191683800117855562000a31565b8280016001018555821562000a31579182015b8281111562000a3057825182559160200191906001019062000a13565b5b50905062000a40919062000a44565b5090565b62000a6991905b8082111562000a6557600081600090555060010162000a4b565b5090565b90565b612c9f8062000a7c6000396000f3fe608060405234801561001057600080fd5b50600436106102115760003560e01c8063897534a911610125578063c9efae28116100ad578063d547741f1161007c578063d547741f14610a00578063dd62ed3e14610a4e578063eb66628a14610ac6578063f263c47014610af4578063f2fde38b14610b1257610211565b8063c9efae2814610964578063ca15c87314610982578063cfa6097b146109c4578063d1c4e40c146109e257610211565b806395d89b41116100f457806395d89b41146107a9578063a217fddf1461082c578063a2665e761461084a578063a457c2d714610898578063a9059cbb146108fe57610211565b8063897534a9146106635780638da5cb5b146106815780639010d07c146106cb57806391d148541461074357610211565b8063355274ea116101a857806357d286911161017757806357d286911461059557806370a082311461059f578063715018a6146105f75780637c39fb261461060157806387b16f2c1461064557610211565b8063355274ea146104a557806336568abe146104c35780633950935114610511578063563df32f1461057757610211565b806323b872dd116101e457806323b872dd1461036b578063248a9ca3146103f15780632f2ff15d14610433578063313ce5671461048157610211565b806306fdde0314610216578063095ea7b31461029957806318160ddd146102ff5780631c867c3a1461031d575b600080fd5b61021e610b56565b6040518080602001828103825283818151815260200191508051906020019080838360005b8381101561025e578082015181840152602081019050610243565b50505050905090810190601f16801561028b5780820380516001836020036101000a031916815260200191505b509250505060405180910390f35b6102e5600480360360408110156102af57600080fd5b81019080803573ffffffffffffffffffffffffffffffffffffffff16906020019092919080359060200190929190505050610bf8565b604051808215151515815260200191505060405180910390f35b610307610c16565b6040518082815260200191505060405180910390f35b6103696004803603604081101561033357600080fd5b81019080803573ffffffffffffffffffffffffffffffffffffffff16906020019092919080359060200190929190505050610c20565b005b6103d76004803603606081101561038157600080fd5b81019080803573ffffffffffffffffffffffffffffffffffffffff169060200190929190803573ffffffffffffffffffffffffffffffffffffffff16906020019092919080359060200190929190505050610e45565b604051808215151515815260200191505060405180910390f35b61041d6004803603602081101561040757600080fd5b8101908080359060200190929190505050610f1e565b6040518082815260200191505060405180910390f35b61047f6004803603604081101561044957600080fd5b8101908080359060200190929190803573ffffffffffffffffffffffffffffffffffffffff169060200190929190505050610f3e565b005b610489610fc8565b604051808260ff1660ff16815260200191505060405180910390f35b6104ad610fdf565b6040518082815260200191505060405180910390f35b61050f600480360360408110156104d957600080fd5b8101908080359060200190929190803573ffffffffffffffffffffffffffffffffffffffff169060200190929190505050610fe9565b005b61055d6004803603604081101561052757600080fd5b81019080803573ffffffffffffffffffffffffffffffffffffffff16906020019092919080359060200190929190505050611082565b604051808215151515815260200191505060405180910390f35b61057f611135565b6040518082815260200191505060405180910390f35b61059d61113b565b005b6105e1600480360360208110156105b557600080fd5b81019080803573ffffffffffffffffffffffffffffffffffffffff1690602001909291905050506111c4565b6040518082815260200191505060405180910390f35b6105ff61120c565b005b6106436004803603602081101561061757600080fd5b81019080803573ffffffffffffffffffffffffffffffffffffffff16906020019092919050505061137c565b005b61064d61146d565b6040518082815260200191505060405180910390f35b61066b611477565b6040518082815260200191505060405180910390f35b610689611481565b604051808273ffffffffffffffffffffffffffffffffffffffff1673ffffffffffffffffffffffffffffffffffffffff16815260200191505060405180910390f35b610701600480360360408110156106e157600080fd5b8101908080359060200190929190803590602001909291905050506114ab565b604051808273ffffffffffffffffffffffffffffffffffffffff1673ffffffffffffffffffffffffffffffffffffffff16815260200191505060405180910390f35b61078f6004803603604081101561075957600080fd5b8101908080359060200190929190803573ffffffffffffffffffffffffffffffffffffffff1690602001909291905050506114dd565b604051808215151515815260200191505060405180910390f35b6107b161150f565b6040518080602001828103825283818151815260200191508051906020019080838360005b838110156107f15780820151818401526020810190506107d6565b50505050905090810190601f16801561081e5780820380516001836020036101000a031916815260200191505b509250505060405180910390f35b6108346115b1565b6040518082815260200191505060405180910390f35b6108966004803603604081101561086057600080fd5b81019080803573ffffffffffffffffffffffffffffffffffffffff169060200190929190803590602001909291905050506115b8565b005b6108e4600480360360408110156108ae57600080fd5b81019080803573ffffffffffffffffffffffffffffffffffffffff16906020019092919080359060200190929190505050611732565b604051808215151515815260200191505060405180910390f35b61094a6004803603604081101561091457600080fd5b81019080803573ffffffffffffffffffffffffffffffffffffffff169060200190929190803590602001909291905050506117ff565b604051808215151515815260200191505060405180910390f35b61096c61181d565b6040518082815260200191505060405180910390f35b6109ae6004803603602081101561099857600080fd5b8101908080359060200190929190505050611823565b6040518082815260200191505060405180910390f35b6109cc61184a565b6040518082815260200191505060405180910390f35b6109ea611850565b6040518082815260200191505060405180910390f35b610a4c60048036036040811015610a1657600080fd5b8101908080359060200190929190803573ffffffffffffffffffffffffffffffffffffffff169060200190929190505050611889565b005b610ab060048036036040811015610a6457600080fd5b81019080803573ffffffffffffffffffffffffffffffffffffffff169060200190929190803573ffffffffffffffffffffffffffffffffffffffff169060200190929190505050611913565b6040518082815260200191505060405180910390f35b610af260048036036020811015610adc57600080fd5b810190808035906020019092919050505061199a565b005b610afc611ad2565b6040518082815260200191505060405180910390f35b610b5460048036036020811015610b2857600080fd5b81019080803573ffffffffffffffffffffffffffffffffffffffff169060200190929190505050611adc565b005b606060038054600181600116156101000203166002900480601f016020809104026020016040519081016040528092919081815260200182805460018160011615610100020316600290048015610bee5780601f10610bc357610100808354040283529160200191610bee565b820191906000526020600020905b815481529060010190602001808311610bd157829003601f168201915b5050505050905090565b6000610c0c610c05611cd1565b8484611cd9565b6001905092915050565b6000600254905090565b610c5f60405180807f62617463684f776e657200000000000000000000000000000000000000000000815250600a0190506040518091039020336114dd565b610c6857600080fd5b610c70610fdf565b610c8582600954611ed090919063ffffffff16565b1115610cdc576040517f08c379a0000000000000000000000000000000000000000000000000000000008152600401808060200182810382526027815260200180612b7e6027913960400191505060405180910390fd5b80600c60008473ffffffffffffffffffffffffffffffffffffffff1673ffffffffffffffffffffffffffffffffffffffff168152602001908152602001600020541115610d91576040517f08c379a00000000000000000000000000000000000000000000000000000000081526004018080602001828103825260208152602001807f43616e6e6f74206465706f736974206d6f7265207468616e20796f75206f776e81525060200191505060405180910390fd5b610da681600954611ed090919063ffffffff16565b600981905550610dfe81600c60008573ffffffffffffffffffffffffffffffffffffffff1673ffffffffffffffffffffffffffffffffffffffff16815260200190815260200160002054611f5890919063ffffffff16565b600c60008473ffffffffffffffffffffffffffffffffffffffff1673ffffffffffffffffffffffffffffffffffffffff168152602001908152602001600020819055505050565b6000610e52848484611fdb565b610f1384610e5e611cd1565b610f0e85604051806060016040528060288152602001612ba560289139600160008b73ffffffffffffffffffffffffffffffffffffffff1673ffffffffffffffffffffffffffffffffffffffff1681526020019081526020016000206000610ec4611cd1565b73ffffffffffffffffffffffffffffffffffffffff1673ffffffffffffffffffffffffffffffffffffffff1681526020019081526020016000205461229c9092919063ffffffff16565b611cd9565b600190509392505050565b600060086000838152602001908152602001600020600201549050919050565b610f656008600084815260200190815260200160002060020154610f60611cd1565b6114dd565b610fba576040517f08c379a000000000000000000000000000000000000000000000000000000000815260040180806020018281038252602f815260200180612a3a602f913960400191505060405180910390fd5b610fc48282612356565b5050565b6000600560009054906101000a900460ff16905090565b6000600654905090565b610ff1611cd1565b73ffffffffffffffffffffffffffffffffffffffff168173ffffffffffffffffffffffffffffffffffffffff1614611074576040517f08c379a000000000000000000000000000000000000000000000000000000000815260040180806020018281038252602f815260200180612c3b602f913960400191505060405180910390fd5b61107e82826123ea565b5050565b600061112b61108f611cd1565b8461112685600160006110a0611cd1565b73ffffffffffffffffffffffffffffffffffffffff1673ffffffffffffffffffffffffffffffffffffffff16815260200190815260200160002060008973ffffffffffffffffffffffffffffffffffffffff1673ffffffffffffffffffffffffffffffffffffffff16815260200190815260200160002054611ed090919063ffffffff16565b611cd9565b6001905092915050565b60095481565b61117a60405180807f62617463684f776e657200000000000000000000000000000000000000000000815250600a0190506040518091039020336114dd565b61118357600080fd5b6111c260405180807f62617463684f776e657200000000000000000000000000000000000000000000815250600a019050604051809103902033611889565b565b60008060008373ffffffffffffffffffffffffffffffffffffffff1673ffffffffffffffffffffffffffffffffffffffff168152602001908152602001600020549050919050565b611214611cd1565b73ffffffffffffffffffffffffffffffffffffffff16611232611481565b73ffffffffffffffffffffffffffffffffffffffff16146112bb576040517f08c379a00000000000000000000000000000000000000000000000000000000081526004018080602001828103825260208152602001807f4f776e61626c653a2063616c6c6572206973206e6f7420746865206f776e657281525060200191505060405180910390fd5b600073ffffffffffffffffffffffffffffffffffffffff16600760009054906101000a900473ffffffffffffffffffffffffffffffffffffffff1673ffffffffffffffffffffffffffffffffffffffff167f8be0079c531659141344cd1fd0a4f28419497f9722a3daafe3b4186f6b6457e060405160405180910390a36000600760006101000a81548173ffffffffffffffffffffffffffffffffffffffff021916908373ffffffffffffffffffffffffffffffffffffffff160217905550565b611384611cd1565b73ffffffffffffffffffffffffffffffffffffffff166113a2611481565b73ffffffffffffffffffffffffffffffffffffffff161461142b576040517f08c379a00000000000000000000000000000000000000000000000000000000081526004018080602001828103825260208152602001807f4f776e61626c653a2063616c6c6572206973206e6f7420746865206f776e657281525060200191505060405180910390fd5b61146a60405180807f62617463684f776e657200000000000000000000000000000000000000000000815250600a019050604051809103902082610f3e565b50565b6000600b54905090565b6000600954905090565b6000600760009054906101000a900473ffffffffffffffffffffffffffffffffffffffff16905090565b60006114d5826008600086815260200190815260200160002060000161247e90919063ffffffff16565b905092915050565b6000611507826008600086815260200190815260200160002060000161249890919063ffffffff16565b905092915050565b606060048054600181600116156101000203166002900480601f0160208091040260200160405190810160405280929190818152602001828054600181600116156101000203166002900480156115a75780601f1061157c576101008083540402835291602001916115a7565b820191906000526020600020905b81548152906001019060200180831161158a57829003601f168201915b5050505050905090565b6000801b81565b6115f760405180807f62617463684f776e657200000000000000000000000000000000000000000000815250600a0190506040518091039020336114dd565b61160057600080fd5b600061161782600954611f5890919063ffffffff16565b101561166e576040517f08c379a0000000000000000000000000000000000000000000000000000000008152600401808060200182810382526028815260200180612adb6028913960400191505060405180910390fd5b670de0b6b3a76400008111156116cf576040517f08c379a0000000000000000000000000000000000000000000000000000000008152600401808060200182810382526025815260200180612b296025913960400191505060405180910390fd5b6116e481600954611f5890919063ffffffff16565b60098190555080600c60008473ffffffffffffffffffffffffffffffffffffffff1673ffffffffffffffffffffffffffffffffffffffff168152602001908152602001600020819055505050565b60006117f561173f611cd1565b846117f085604051806060016040528060258152602001612c166025913960016000611769611cd1565b73ffffffffffffffffffffffffffffffffffffffff1673ffffffffffffffffffffffffffffffffffffffff16815260200190815260200160002060008a73ffffffffffffffffffffffffffffffffffffffff1673ffffffffffffffffffffffffffffffffffffffff1681526020019081526020016000205461229c9092919063ffffffff16565b611cd9565b6001905092915050565b600061181361180c611cd1565b8484611fdb565b6001905092915050565b600b5481565b6000611843600860008481526020019081526020016000206000016124c8565b9050919050565b600a5481565b60405180807f62617463684f776e657200000000000000000000000000000000000000000000815250600a019050604051809103902081565b6118b060086000848152602001908152602001600020600201546118ab611cd1565b6114dd565b611905576040517f08c379a0000000000000000000000000000000000000000000000000000000008152600401808060200182810382526030815260200180612b4e6030913960400191505060405180910390fd5b61190f82826123ea565b5050565b6000600160008473ffffffffffffffffffffffffffffffffffffffff1673ffffffffffffffffffffffffffffffffffffffff16815260200190815260200160002060008373ffffffffffffffffffffffffffffffffffffffff1673ffffffffffffffffffffffffffffffffffffffff16815260200190815260200160002054905092915050565b6119a2611cd1565b73ffffffffffffffffffffffffffffffffffffffff166119c0611481565b73ffffffffffffffffffffffffffffffffffffffff1614611a49576040517f08c379a00000000000000000000000000000000000000000000000000000000081526004018080602001828103825260208152602001807f4f776e61626c653a2063616c6c6572206973206e6f7420746865206f776e657281525060200191505060405180910390fd5b600b548110611aa3576040517f08c379a000000000000000000000000000000000000000000000000000000000815260040180806020018281038252602a815260200180612a69602a913960400191505060405180910390fd5b611ab4611aae611481565b826124dd565b611ac981600954611ed090919063ffffffff16565b60098190555050565b6000600a54905090565b611ae4611cd1565b73ffffffffffffffffffffffffffffffffffffffff16611b02611481565b73ffffffffffffffffffffffffffffffffffffffff1614611b8b576040517f08c379a00000000000000000000000000000000000000000000000000000000081526004018080602001828103825260208152602001807f4f776e61626c653a2063616c6c6572206973206e6f7420746865206f776e657281525060200191505060405180910390fd5b600073ffffffffffffffffffffffffffffffffffffffff168173ffffffffffffffffffffffffffffffffffffffff161415611c11576040517f08c379a0000000000000000000000000000000000000000000000000000000008152600401808060200182810382526026815260200180612a936026913960400191505060405180910390fd5b8073ffffffffffffffffffffffffffffffffffffffff16600760009054906101000a900473ffffffffffffffffffffffffffffffffffffffff1673ffffffffffffffffffffffffffffffffffffffff167f8be0079c531659141344cd1fd0a4f28419497f9722a3daafe3b4186f6b6457e060405160405180910390a380600760006101000a81548173ffffffffffffffffffffffffffffffffffffffff021916908373ffffffffffffffffffffffffffffffffffffffff16021790555050565b600033905090565b600073ffffffffffffffffffffffffffffffffffffffff168373ffffffffffffffffffffffffffffffffffffffff161415611d5f576040517f08c379a0000000000000000000000000000000000000000000000000000000008152600401808060200182810382526024815260200180612bf26024913960400191505060405180910390fd5b600073ffffffffffffffffffffffffffffffffffffffff168273ffffffffffffffffffffffffffffffffffffffff161415611de5576040517f08c379a0000000000000000000000000000000000000000000000000000000008152600401808060200182810382526022815260200180612ab96022913960400191505060405180910390fd5b80600160008573ffffffffffffffffffffffffffffffffffffffff1673ffffffffffffffffffffffffffffffffffffffff16815260200190815260200160002060008473ffffffffffffffffffffffffffffffffffffffff1673ffffffffffffffffffffffffffffffffffffffff168152602001908152602001600020819055508173ffffffffffffffffffffffffffffffffffffffff168373ffffffffffffffffffffffffffffffffffffffff167f8c5be1e5ebec7d5bd14f71427d1e84f3dd0314c0f7b2291e5b200ac8c7c3b925836040518082815260200191505060405180910390a3505050565b600080828401905083811015611f4e576040517f08c379a000000000000000000000000000000000000000000000000000000000815260040180806020018281038252601b8152602001807f536166654d6174683a206164646974696f6e206f766572666c6f77000000000081525060200191505060405180910390fd5b8091505092915050565b600082821115611fd0576040517f08c379a000000000000000000000000000000000000000000000000000000000815260040180806020018281038252601e8152602001807f536166654d6174683a207375627472616374696f6e206f766572666c6f77000081525060200191505060405180910390fd5b818303905092915050565b600073ffffffffffffffffffffffffffffffffffffffff168373ffffffffffffffffffffffffffffffffffffffff161415612061576040517f08c379a0000000000000000000000000000000000000000000000000000000008152600401808060200182810382526025815260200180612bcd6025913960400191505060405180910390fd5b600073ffffffffffffffffffffffffffffffffffffffff168273ffffffffffffffffffffffffffffffffffffffff1614156120e7576040517f08c379a0000000000000000000000000000000000000000000000000000000008152600401808060200182810382526023815260200180612a176023913960400191505060405180910390fd5b6120f28383836126a4565b61215d81604051806060016040528060268152602001612b03602691396000808773ffffffffffffffffffffffffffffffffffffffff1673ffffffffffffffffffffffffffffffffffffffff1681526020019081526020016000205461229c9092919063ffffffff16565b6000808573ffffffffffffffffffffffffffffffffffffffff1673ffffffffffffffffffffffffffffffffffffffff168152602001908152602001600020819055506121f0816000808573ffffffffffffffffffffffffffffffffffffffff1673ffffffffffffffffffffffffffffffffffffffff16815260200190815260200160002054611ed090919063ffffffff16565b6000808473ffffffffffffffffffffffffffffffffffffffff1673ffffffffffffffffffffffffffffffffffffffff168152602001908152602001600020819055508173ffffffffffffffffffffffffffffffffffffffff168373ffffffffffffffffffffffffffffffffffffffff167fddf252ad1be2c89b69c2b068fc378daa952ba7f163c4a11628f55a4df523b3ef836040518082815260200191505060405180910390a3505050565b6000838311158290612349576040517f08c379a00000000000000000000000000000000000000000000000000000000081526004018080602001828103825283818151815260200191508051906020019080838360005b8381101561230e5780820151818401526020810190506122f3565b50505050905090810190601f16801561233b5780820380516001836020036101000a031916815260200191505b509250505060405180910390fd5b5082840390509392505050565b61237e816008600085815260200190815260200160002060000161278090919063ffffffff16565b156123e65761238b611cd1565b73ffffffffffffffffffffffffffffffffffffffff168173ffffffffffffffffffffffffffffffffffffffff16837f2f8788117e7eff1d82e926ec794901d17c78024a50270940304540a733656f0d60405160405180910390a45b5050565b61241281600860008581526020019081526020016000206000016127b090919063ffffffff16565b1561247a5761241f611cd1565b73ffffffffffffffffffffffffffffffffffffffff168173ffffffffffffffffffffffffffffffffffffffff16837ff6391f5c32d9c69d2a47ea670b442974b53935d1edc7fd64eb21e047a839171b60405160405180910390a45b5050565b600061248d83600001836127e0565b60001c905092915050565b60006124c0836000018373ffffffffffffffffffffffffffffffffffffffff1660001b612863565b905092915050565b60006124d682600001612886565b9050919050565b600073ffffffffffffffffffffffffffffffffffffffff168273ffffffffffffffffffffffffffffffffffffffff161415612580576040517f08c379a000000000000000000000000000000000000000000000000000000000815260040180806020018281038252601f8152602001807f45524332303a206d696e7420746f20746865207a65726f20616464726573730081525060200191505060405180910390fd5b61258c600083836126a4565b6125a181600254611ed090919063ffffffff16565b6002819055506125f8816000808573ffffffffffffffffffffffffffffffffffffffff1673ffffffffffffffffffffffffffffffffffffffff16815260200190815260200160002054611ed090919063ffffffff16565b6000808473ffffffffffffffffffffffffffffffffffffffff1673ffffffffffffffffffffffffffffffffffffffff168152602001908152602001600020819055508173ffffffffffffffffffffffffffffffffffffffff16600073ffffffffffffffffffffffffffffffffffffffff167fddf252ad1be2c89b69c2b068fc378daa952ba7f163c4a11628f55a4df523b3ef836040518082815260200191505060405180910390a35050565b6126af838383612897565b600073ffffffffffffffffffffffffffffffffffffffff168373ffffffffffffffffffffffffffffffffffffffff16141561277b576126ec610fdf565b612706826126f8610c16565b611ed090919063ffffffff16565b111561277a576040517f08c379a00000000000000000000000000000000000000000000000000000000081526004018080602001828103825260198152602001807f45524332304361707065643a206361702065786365656465640000000000000081525060200191505060405180910390fd5b5b505050565b60006127a8836000018373ffffffffffffffffffffffffffffffffffffffff1660001b61289c565b905092915050565b60006127d8836000018373ffffffffffffffffffffffffffffffffffffffff1660001b61290c565b905092915050565b600081836000018054905011612841576040517f08c379a00000000000000000000000000000000000000000000000000000000081526004018080602001828103825260228152602001806129f56022913960400191505060405180910390fd5b82600001828154811061285057fe5b9060005260206000200154905092915050565b600080836001016000848152602001908152602001600020541415905092915050565b600081600001805490509050919050565b505050565b60006128a88383612863565b612901578260000182908060018154018082558091505060019003906000526020600020016000909190919091505582600001805490508360010160008481526020019081526020016000208190555060019050612906565b600090505b92915050565b600080836001016000848152602001908152602001600020549050600081146129e8576000600182039050600060018660000180549050039050600086600001828154811061295757fe5b906000526020600020015490508087600001848154811061297457fe5b90600052602060002001819055506001830187600101600083815260200190815260200160002081905550866000018054806129ac57fe5b600190038181906000526020600020016000905590558660010160008781526020019081526020016000206000905560019450505050506129ee565b60009150505b9291505056fe456e756d657261626c655365743a20696e646578206f7574206f6620626f756e647345524332303a207472616e7366657220746f20746865207a65726f2061646472657373416363657373436f6e74726f6c3a2073656e646572206d75737420626520616e2061646d696e20746f206772616e744e6f7420656e6f75676820756e6d696e74656420626f6e647320746f20636f766572206465706f7369744f776e61626c653a206e6577206f776e657220697320746865207a65726f206164647265737345524332303a20617070726f766520746f20746865207a65726f206164647265737363616e6e6f74207769746864726177206d6f7265207468616e20697320696e20747265617375727945524332303a207472616e7366657220616d6f756e7420657863656564732062616c616e63654d6178206261746368207769746864726177616c206973203120746f74616c20746f6b656e416363657373436f6e74726f6c3a2073656e646572206d75737420626520616e2061646d696e20746f207265766f6b6543616e6e6f7420616464206d6f726520746f205472656173757279207468616e2065786973747345524332303a207472616e7366657220616d6f756e74206578636565647320616c6c6f77616e636545524332303a207472616e736665722066726f6d20746865207a65726f206164647265737345524332303a20617070726f76652066726f6d20746865207a65726f206164647265737345524332303a2064656372656173656420616c6c6f77616e63652062656c6f77207a65726f416363657373436f6e74726f6c3a2063616e206f6e6c792072656e6f756e636520726f6c657320666f722073656c66a264697066735822122026b6e551783746267feca5d27af34255ee617b5ef79da56df737cebbd03b764364736f6c63430006020033",
  "source": "// SPDX-License-Identifier: MIT\npragma solidity >=0.4.22 <0.9.0;\n\nimport '@openzeppelin/contracts/token/ERC20/ERC20Capped.sol';\nimport '@openzeppelin/contracts/access/AccessControl.sol';\nimport '@openzeppelin/contracts/access/Ownable.sol';\nimport '@openzeppelin/contracts/math/SafeMath.sol';\n\ncontract ERC20Treasury is ERC20Capped, Ownable, AccessControl{\n  using SafeMath for uint256;\n\n  uint256 public Treasury;\n  uint256 public Bonds;\n  uint256 public UnmintedSupply;\n  bytes32 public constant BATCH_OWNER = keccak256('batchOwner');\n\n   function addBatchOwnerRole(address _account) public onlyOwner(){\n        grantRole(BATCH_OWNER, _account);         // (from OZ AccessControl)  // emits a RoleGranted(role, account, sender) event\n    }\n\n   function removeBatchOwnerRole() public batchOwner(){\n     revokeRole(BATCH_OWNER, msg.sender);\n   }\n\n  modifier batchOwner() {\n    require(hasRole(BATCH_OWNER, msg.sender));\n    _;\n  }\n\n  mapping (address => uint256) internal _partition;\n\n  constructor(string memory _name, \n              string memory _symbol, \n              uint256 _cappedSupply,\n              uint256 _initialTreasury)\n\n  ERC20Capped(_cappedSupply)\n  ERC20(_name, _symbol)\n  Ownable()\n  AccessControl() public {\n    /**Treasury contract \n    1. Sets cap \n    2. Sets name\n    3. Sets treasury supply as portion of total capped ERC20 */\n    Treasury = _initialTreasury;\n    _mint(owner(), _initialTreasury);\n    Bonds = _cappedSupply.sub(Treasury);\n    UnmintedSupply = cap().sub(totalSupply());\n    _setupRole(DEFAULT_ADMIN_ROLE, msg.sender);\n  }\n/**Total treasury is a portion of the total cap of ERC20 token.\n  *Cap() - totalTreaury() = Bonds()\n  *Bonds represent the DEX swappable token. Bonds are the supply of ERC20 that has not been locked for distribution.\n  */\n  function totalTreasury() public view returns(uint256){\n    return Treasury;\n  }\n\n  /**Bonds represent the DEX swappable token. Bonds are the supply of ERC20 that has not been locked for distribution. */\n  function totalBonds() public view returns(uint256){\n    return Bonds;\n  }\n\n  function availableBonds() public view returns(uint256){\n    return UnmintedSupply;\n  }\n\n  /**Reduces number of available Bonds for DEX but increases Treasury \n     Requires that unminted bonds be greater than the amount requested.\n     mints bonds\n     adds bonds to available treasury\n  */\n\n  function increaseTreasuryFromUnmintedBonds(uint256 amount) public onlyOwner() {\n     require(amount < UnmintedSupply, \"Not enough unminted bonds to cover deposit\");\n     _mint(owner(), amount);\n     Treasury = Treasury.add(amount);\n  }\n\n  function increaseTreasuryFromBatch(address _batchOwner, uint256 amount) public batchOwner() {\n    require(Treasury.add(amount) <= cap(), \"Cannot add more to Treasury than exists\");\n    require(_partition[_batchOwner] <= amount, \"Cannot deposit more than you own\");\n    Treasury = Treasury.add(amount);\n    _partition[_batchOwner] = _partition[_batchOwner].sub(amount);\n  }\n\n  function withdrawFromTreasuryToBatch(address batch, uint256 amount) public batchOwner() {\n      require(Treasury.sub(amount) >= 0, \"cannot withdraw more than is in treasury\");\n      require(amount <= 1*10**18, \"Max batch withdrawal is 1 total token\");\n      Treasury = Treasury.sub(amount);\n      _partition[batch] = amount;\n  }\n\n\n  \n}\n\n",
  "sourcePath": "C:\\replatform\\contracts\\ERC20Treasury.sol",
  "compiler": {
    "name": "solc",
    "version": "0.6.2+commit.bacdbe57.Emscripten.clang"
  },
  "schemaVersion": "3.3.3",
  "updatedAt": "2021-02-11T18:19:34.890Z",
  "devdoc": {
    "methods": {
      "allowance(address,address)": {
        "details": "See {IERC20-allowance}."
      },
      "approve(address,uint256)": {
        "details": "See {IERC20-approve}.     * Requirements:     * - `spender` cannot be the zero address."
      },
      "balanceOf(address)": {
        "details": "See {IERC20-balanceOf}."
      },
      "cap()": {
        "details": "Returns the cap on the token's total supply."
      },
      "decimals()": {
        "details": "Returns the number of decimals used to get its user representation. For example, if `decimals` equals `2`, a balance of `505` tokens should be displayed to a user as `5,05` (`505 / 10 ** 2`).     * Tokens usually opt for a value of 18, imitating the relationship between Ether and Wei. This is the value {ERC20} uses, unless {_setupDecimals} is called.     * NOTE: This information is only used for _display_ purposes: it in no way affects any of the arithmetic of the contract, including {IERC20-balanceOf} and {IERC20-transfer}."
      },
      "decreaseAllowance(address,uint256)": {
        "details": "Atomically decreases the allowance granted to `spender` by the caller.     * This is an alternative to {approve} that can be used as a mitigation for problems described in {IERC20-approve}.     * Emits an {Approval} event indicating the updated allowance.     * Requirements:     * - `spender` cannot be the zero address. - `spender` must have allowance for the caller of at least `subtractedValue`."
      },
      "getRoleAdmin(bytes32)": {
        "details": "Returns the admin role that controls `role`. See {grantRole} and {revokeRole}.     * To change a role's admin, use {_setRoleAdmin}."
      },
      "getRoleMember(bytes32,uint256)": {
        "details": "Returns one of the accounts that have `role`. `index` must be a value between 0 and {getRoleMemberCount}, non-inclusive.     * Role bearers are not sorted in any particular way, and their ordering may change at any point.     * WARNING: When using {getRoleMember} and {getRoleMemberCount}, make sure you perform all queries on the same block. See the following https://forum.openzeppelin.com/t/iterating-over-elements-on-enumerableset-in-openzeppelin-contracts/2296[forum post] for more information."
      },
      "getRoleMemberCount(bytes32)": {
        "details": "Returns the number of accounts that have `role`. Can be used together with {getRoleMember} to enumerate all bearers of a role."
      },
      "grantRole(bytes32,address)": {
        "details": "Grants `role` to `account`.     * If `account` had not been already granted `role`, emits a {RoleGranted} event.     * Requirements:     * - the caller must have ``role``'s admin role."
      },
      "hasRole(bytes32,address)": {
        "details": "Returns `true` if `account` has been granted `role`."
      },
      "increaseAllowance(address,uint256)": {
        "details": "Atomically increases the allowance granted to `spender` by the caller.     * This is an alternative to {approve} that can be used as a mitigation for problems described in {IERC20-approve}.     * Emits an {Approval} event indicating the updated allowance.     * Requirements:     * - `spender` cannot be the zero address."
      },
      "name()": {
        "details": "Returns the name of the token."
      },
      "owner()": {
        "details": "Returns the address of the current owner."
      },
      "renounceOwnership()": {
        "details": "Leaves the contract without owner. It will not be possible to call `onlyOwner` functions anymore. Can only be called by the current owner.     * NOTE: Renouncing ownership will leave the contract without an owner, thereby removing any functionality that is only available to the owner."
      },
      "renounceRole(bytes32,address)": {
        "details": "Revokes `role` from the calling account.     * Roles are often managed via {grantRole} and {revokeRole}: this function's purpose is to provide a mechanism for accounts to lose their privileges if they are compromised (such as when a trusted device is misplaced).     * If the calling account had been granted `role`, emits a {RoleRevoked} event.     * Requirements:     * - the caller must be `account`."
      },
      "revokeRole(bytes32,address)": {
        "details": "Revokes `role` from `account`.     * If `account` had been granted `role`, emits a {RoleRevoked} event.     * Requirements:     * - the caller must have ``role``'s admin role."
      },
      "symbol()": {
        "details": "Returns the symbol of the token, usually a shorter version of the name."
      },
      "totalSupply()": {
        "details": "See {IERC20-totalSupply}."
      },
      "transfer(address,uint256)": {
        "details": "See {IERC20-transfer}.     * Requirements:     * - `recipient` cannot be the zero address. - the caller must have a balance of at least `amount`."
      },
      "transferFrom(address,address,uint256)": {
        "details": "See {IERC20-transferFrom}.     * Emits an {Approval} event indicating the updated allowance. This is not required by the EIP. See the note at the beginning of {ERC20}.     * Requirements:     * - `sender` and `recipient` cannot be the zero address. - `sender` must have a balance of at least `amount`. - the caller must have allowance for ``sender``'s tokens of at least `amount`."
      },
      "transferOwnership(address)": {
        "details": "Transfers ownership of the contract to a new account (`newOwner`). Can only be called by the current owner."
      }
    }
  },
  "userdoc": {
    "methods": {
      "increaseTreasuryFromUnmintedBonds(uint256)": {
        "notice": "Reduces number of available Bonds for DEX but increases Treasury  Requires that unminted bonds be greater than the amount requested. mints bonds adds bonds to available treasury"
      },
      "totalBonds()": {
        "notice": "Bonds represent the DEX swappable token. Bonds are the supply of ERC20 that has not been locked for distribution. "
      },
      "totalTreasury()": {
        "notice": "Total treasury is a portion of the total cap of ERC20 token. ap() - totalTreaury() = Bonds() onds represent the DEX swappable token. Bonds are the supply of ERC20 that has not been locked for distribution."
      }
    }
  }
}