{
  "contractName": "Replatform",
  "abi": [
    {
      "inputs": [
        {
          "internalType": "string",
          "name": "nameOfTreasury",
          "type": "string"
        },
        {
          "internalType": "string",
          "name": "symbolOfTreasury",
          "type": "string"
        },
        {
          "internalType": "uint256",
          "name": "cappedSupplyOfTreasury",
          "type": "uint256"
        },
        {
          "internalType": "uint256",
          "name": "initialAvailableSupplyOfTreasury",
          "type": "uint256"
        }
      ],
      "stateMutability": "nonpayable",
      "type": "constructor"
    },
    {
      "anonymous": false,
      "inputs": [
        {
          "indexed": true,
          "internalType": "address",
          "name": "owner",
          "type": "address"
        },
        {
          "indexed": true,
          "internalType": "address",
          "name": "spender",
          "type": "address"
        },
        {
          "indexed": false,
          "internalType": "uint256",
          "name": "value",
          "type": "uint256"
        }
      ],
      "name": "Approval",
      "type": "event"
    },
    {
      "anonymous": false,
      "inputs": [
        {
          "indexed": true,
          "internalType": "address",
          "name": "account",
          "type": "address"
        },
        {
          "indexed": true,
          "internalType": "address",
          "name": "operator",
          "type": "address"
        },
        {
          "indexed": false,
          "internalType": "bool",
          "name": "approved",
          "type": "bool"
        }
      ],
      "name": "ApprovalForAll",
      "type": "event"
    },
    {
      "anonymous": false,
      "inputs": [
        {
          "indexed": true,
          "internalType": "address",
          "name": "previousOwner",
          "type": "address"
        },
        {
          "indexed": true,
          "internalType": "address",
          "name": "newOwner",
          "type": "address"
        }
      ],
      "name": "OwnershipTransferred",
      "type": "event"
    },
    {
      "anonymous": false,
      "inputs": [
        {
          "indexed": true,
          "internalType": "bytes32",
          "name": "role",
          "type": "bytes32"
        },
        {
          "indexed": true,
          "internalType": "bytes32",
          "name": "previousAdminRole",
          "type": "bytes32"
        },
        {
          "indexed": true,
          "internalType": "bytes32",
          "name": "newAdminRole",
          "type": "bytes32"
        }
      ],
      "name": "RoleAdminChanged",
      "type": "event"
    },
    {
      "anonymous": false,
      "inputs": [
        {
          "indexed": true,
          "internalType": "bytes32",
          "name": "role",
          "type": "bytes32"
        },
        {
          "indexed": true,
          "internalType": "address",
          "name": "account",
          "type": "address"
        },
        {
          "indexed": true,
          "internalType": "address",
          "name": "sender",
          "type": "address"
        }
      ],
      "name": "RoleGranted",
      "type": "event"
    },
    {
      "anonymous": false,
      "inputs": [
        {
          "indexed": true,
          "internalType": "bytes32",
          "name": "role",
          "type": "bytes32"
        },
        {
          "indexed": true,
          "internalType": "address",
          "name": "account",
          "type": "address"
        },
        {
          "indexed": true,
          "internalType": "address",
          "name": "sender",
          "type": "address"
        }
      ],
      "name": "RoleRevoked",
      "type": "event"
    },
    {
      "anonymous": false,
      "inputs": [
        {
          "indexed": true,
          "internalType": "address",
          "name": "from",
          "type": "address"
        },
        {
          "indexed": true,
          "internalType": "address",
          "name": "to",
          "type": "address"
        },
        {
          "indexed": false,
          "internalType": "uint256",
          "name": "value",
          "type": "uint256"
        }
      ],
      "name": "Transfer",
      "type": "event"
    },
    {
      "anonymous": false,
      "inputs": [
        {
          "indexed": true,
          "internalType": "address",
          "name": "operator",
          "type": "address"
        },
        {
          "indexed": true,
          "internalType": "address",
          "name": "from",
          "type": "address"
        },
        {
          "indexed": true,
          "internalType": "address",
          "name": "to",
          "type": "address"
        },
        {
          "indexed": false,
          "internalType": "uint256[]",
          "name": "ids",
          "type": "uint256[]"
        },
        {
          "indexed": false,
          "internalType": "uint256[]",
          "name": "values",
          "type": "uint256[]"
        }
      ],
      "name": "TransferBatch",
      "type": "event"
    },
    {
      "anonymous": false,
      "inputs": [
        {
          "indexed": true,
          "internalType": "address",
          "name": "operator",
          "type": "address"
        },
        {
          "indexed": true,
          "internalType": "address",
          "name": "from",
          "type": "address"
        },
        {
          "indexed": true,
          "internalType": "address",
          "name": "to",
          "type": "address"
        },
        {
          "indexed": false,
          "internalType": "uint256",
          "name": "id",
          "type": "uint256"
        },
        {
          "indexed": false,
          "internalType": "uint256",
          "name": "value",
          "type": "uint256"
        }
      ],
      "name": "TransferSingle",
      "type": "event"
    },
    {
      "anonymous": false,
      "inputs": [
        {
          "indexed": false,
          "internalType": "string",
          "name": "value",
          "type": "string"
        },
        {
          "indexed": true,
          "internalType": "uint256",
          "name": "id",
          "type": "uint256"
        }
      ],
      "name": "URI",
      "type": "event"
    },
    {
      "inputs": [],
      "name": "BATCH_OWNER",
      "outputs": [
        {
          "internalType": "bytes32",
          "name": "",
          "type": "bytes32"
        }
      ],
      "stateMutability": "view",
      "type": "function"
    },
    {
      "inputs": [],
      "name": "Bonds",
      "outputs": [
        {
          "internalType": "uint256",
          "name": "",
          "type": "uint256"
        }
      ],
      "stateMutability": "view",
      "type": "function"
    },
    {
      "inputs": [],
      "name": "DEFAULT_ADMIN_ROLE",
      "outputs": [
        {
          "internalType": "bytes32",
          "name": "",
          "type": "bytes32"
        }
      ],
      "stateMutability": "view",
      "type": "function"
    },
    {
      "inputs": [],
      "name": "Treasury",
      "outputs": [
        {
          "internalType": "uint256",
          "name": "",
          "type": "uint256"
        }
      ],
      "stateMutability": "view",
      "type": "function"
    },
    {
      "inputs": [],
      "name": "UnmintedSupply",
      "outputs": [
        {
          "internalType": "uint256",
          "name": "",
          "type": "uint256"
        }
      ],
      "stateMutability": "view",
      "type": "function"
    },
    {
      "inputs": [
        {
          "internalType": "address",
          "name": "_account",
          "type": "address"
        }
      ],
      "name": "addBatchOwnerRole",
      "outputs": [],
      "stateMutability": "nonpayable",
      "type": "function"
    },
    {
      "inputs": [
        {
          "internalType": "address",
          "name": "owner",
          "type": "address"
        },
        {
          "internalType": "address",
          "name": "spender",
          "type": "address"
        }
      ],
      "name": "allowance",
      "outputs": [
        {
          "internalType": "uint256",
          "name": "",
          "type": "uint256"
        }
      ],
      "stateMutability": "view",
      "type": "function"
    },
    {
      "inputs": [
        {
          "internalType": "address",
          "name": "spender",
          "type": "address"
        },
        {
          "internalType": "uint256",
          "name": "amount",
          "type": "uint256"
        }
      ],
      "name": "approve",
      "outputs": [
        {
          "internalType": "bool",
          "name": "",
          "type": "bool"
        }
      ],
      "stateMutability": "nonpayable",
      "type": "function"
    },
    {
      "inputs": [],
      "name": "availableBonds",
      "outputs": [
        {
          "internalType": "uint256",
          "name": "",
          "type": "uint256"
        }
      ],
      "stateMutability": "view",
      "type": "function"
    },
    {
      "inputs": [
        {
          "internalType": "address",
          "name": "account",
          "type": "address"
        },
        {
          "internalType": "uint256",
          "name": "id",
          "type": "uint256"
        }
      ],
      "name": "balanceOf",
      "outputs": [
        {
          "internalType": "uint256",
          "name": "",
          "type": "uint256"
        }
      ],
      "stateMutability": "view",
      "type": "function"
    },
    {
      "inputs": [
        {
          "internalType": "address",
          "name": "account",
          "type": "address"
        }
      ],
      "name": "balanceOf",
      "outputs": [
        {
          "internalType": "uint256",
          "name": "",
          "type": "uint256"
        }
      ],
      "stateMutability": "view",
      "type": "function"
    },
    {
      "inputs": [
        {
          "internalType": "address[]",
          "name": "accounts",
          "type": "address[]"
        },
        {
          "internalType": "uint256[]",
          "name": "ids",
          "type": "uint256[]"
        }
      ],
      "name": "balanceOfBatch",
      "outputs": [
        {
          "internalType": "uint256[]",
          "name": "",
          "type": "uint256[]"
        }
      ],
      "stateMutability": "view",
      "type": "function"
    },
    {
      "inputs": [],
      "name": "cap",
      "outputs": [
        {
          "internalType": "uint256",
          "name": "",
          "type": "uint256"
        }
      ],
      "stateMutability": "view",
      "type": "function"
    },
    {
      "inputs": [],
      "name": "decimals",
      "outputs": [
        {
          "internalType": "uint8",
          "name": "",
          "type": "uint8"
        }
      ],
      "stateMutability": "view",
      "type": "function"
    },
    {
      "inputs": [
        {
          "internalType": "address",
          "name": "spender",
          "type": "address"
        },
        {
          "internalType": "uint256",
          "name": "subtractedValue",
          "type": "uint256"
        }
      ],
      "name": "decreaseAllowance",
      "outputs": [
        {
          "internalType": "bool",
          "name": "",
          "type": "bool"
        }
      ],
      "stateMutability": "nonpayable",
      "type": "function"
    },
    {
      "inputs": [
        {
          "internalType": "bytes32",
          "name": "role",
          "type": "bytes32"
        }
      ],
      "name": "getRoleAdmin",
      "outputs": [
        {
          "internalType": "bytes32",
          "name": "",
          "type": "bytes32"
        }
      ],
      "stateMutability": "view",
      "type": "function"
    },
    {
      "inputs": [
        {
          "internalType": "bytes32",
          "name": "role",
          "type": "bytes32"
        },
        {
          "internalType": "uint256",
          "name": "index",
          "type": "uint256"
        }
      ],
      "name": "getRoleMember",
      "outputs": [
        {
          "internalType": "address",
          "name": "",
          "type": "address"
        }
      ],
      "stateMutability": "view",
      "type": "function"
    },
    {
      "inputs": [
        {
          "internalType": "bytes32",
          "name": "role",
          "type": "bytes32"
        }
      ],
      "name": "getRoleMemberCount",
      "outputs": [
        {
          "internalType": "uint256",
          "name": "",
          "type": "uint256"
        }
      ],
      "stateMutability": "view",
      "type": "function"
    },
    {
      "inputs": [
        {
          "internalType": "bytes32",
          "name": "role",
          "type": "bytes32"
        },
        {
          "internalType": "address",
          "name": "account",
          "type": "address"
        }
      ],
      "name": "grantRole",
      "outputs": [],
      "stateMutability": "nonpayable",
      "type": "function"
    },
    {
      "inputs": [
        {
          "internalType": "bytes32",
          "name": "role",
          "type": "bytes32"
        },
        {
          "internalType": "address",
          "name": "account",
          "type": "address"
        }
      ],
      "name": "hasRole",
      "outputs": [
        {
          "internalType": "bool",
          "name": "",
          "type": "bool"
        }
      ],
      "stateMutability": "view",
      "type": "function"
    },
    {
      "inputs": [
        {
          "internalType": "address",
          "name": "spender",
          "type": "address"
        },
        {
          "internalType": "uint256",
          "name": "addedValue",
          "type": "uint256"
        }
      ],
      "name": "increaseAllowance",
      "outputs": [
        {
          "internalType": "bool",
          "name": "",
          "type": "bool"
        }
      ],
      "stateMutability": "nonpayable",
      "type": "function"
    },
    {
      "inputs": [
        {
          "internalType": "uint256",
          "name": "amount",
          "type": "uint256"
        }
      ],
      "name": "increaseTreasuryFromBatch",
      "outputs": [],
      "stateMutability": "nonpayable",
      "type": "function"
    },
    {
      "inputs": [
        {
          "internalType": "uint256",
          "name": "amount",
          "type": "uint256"
        }
      ],
      "name": "increaseTreasuryFromUnmintedBonds",
      "outputs": [],
      "stateMutability": "nonpayable",
      "type": "function"
    },
    {
      "inputs": [
        {
          "internalType": "address",
          "name": "account",
          "type": "address"
        },
        {
          "internalType": "address",
          "name": "operator",
          "type": "address"
        }
      ],
      "name": "isApprovedForAll",
      "outputs": [
        {
          "internalType": "bool",
          "name": "",
          "type": "bool"
        }
      ],
      "stateMutability": "view",
      "type": "function"
    },
    {
      "inputs": [
        {
          "internalType": "uint256",
          "name": "amount",
          "type": "uint256"
        }
      ],
      "name": "mintBonds",
      "outputs": [],
      "stateMutability": "nonpayable",
      "type": "function"
    },
    {
      "inputs": [],
      "name": "name",
      "outputs": [
        {
          "internalType": "string",
          "name": "",
          "type": "string"
        }
      ],
      "stateMutability": "view",
      "type": "function"
    },
    {
      "inputs": [],
      "name": "owner",
      "outputs": [
        {
          "internalType": "address",
          "name": "",
          "type": "address"
        }
      ],
      "stateMutability": "view",
      "type": "function"
    },
    {
      "inputs": [
        {
          "internalType": "address",
          "name": "_account",
          "type": "address"
        }
      ],
      "name": "removeBatchOwnerRole",
      "outputs": [],
      "stateMutability": "nonpayable",
      "type": "function"
    },
    {
      "inputs": [],
      "name": "renounceOwnership",
      "outputs": [],
      "stateMutability": "nonpayable",
      "type": "function"
    },
    {
      "inputs": [
        {
          "internalType": "bytes32",
          "name": "role",
          "type": "bytes32"
        },
        {
          "internalType": "address",
          "name": "account",
          "type": "address"
        }
      ],
      "name": "renounceRole",
      "outputs": [],
      "stateMutability": "nonpayable",
      "type": "function"
    },
    {
      "inputs": [
        {
          "internalType": "bytes32",
          "name": "role",
          "type": "bytes32"
        },
        {
          "internalType": "address",
          "name": "account",
          "type": "address"
        }
      ],
      "name": "revokeRole",
      "outputs": [],
      "stateMutability": "nonpayable",
      "type": "function"
    },
    {
      "inputs": [
        {
          "internalType": "address",
          "name": "from",
          "type": "address"
        },
        {
          "internalType": "address",
          "name": "to",
          "type": "address"
        },
        {
          "internalType": "uint256[]",
          "name": "ids",
          "type": "uint256[]"
        },
        {
          "internalType": "uint256[]",
          "name": "amounts",
          "type": "uint256[]"
        },
        {
          "internalType": "bytes",
          "name": "data",
          "type": "bytes"
        }
      ],
      "name": "safeBatchTransferFrom",
      "outputs": [],
      "stateMutability": "nonpayable",
      "type": "function"
    },
    {
      "inputs": [
        {
          "internalType": "address",
          "name": "from",
          "type": "address"
        },
        {
          "internalType": "address",
          "name": "to",
          "type": "address"
        },
        {
          "internalType": "uint256",
          "name": "id",
          "type": "uint256"
        },
        {
          "internalType": "uint256",
          "name": "amount",
          "type": "uint256"
        },
        {
          "internalType": "bytes",
          "name": "data",
          "type": "bytes"
        }
      ],
      "name": "safeTransferFrom",
      "outputs": [],
      "stateMutability": "nonpayable",
      "type": "function"
    },
    {
      "inputs": [
        {
          "internalType": "address",
          "name": "operator",
          "type": "address"
        },
        {
          "internalType": "bool",
          "name": "approved",
          "type": "bool"
        }
      ],
      "name": "setApprovalForAll",
      "outputs": [],
      "stateMutability": "nonpayable",
      "type": "function"
    },
    {
      "inputs": [
        {
          "internalType": "bytes4",
          "name": "interfaceId",
          "type": "bytes4"
        }
      ],
      "name": "supportsInterface",
      "outputs": [
        {
          "internalType": "bool",
          "name": "",
          "type": "bool"
        }
      ],
      "stateMutability": "view",
      "type": "function"
    },
    {
      "inputs": [],
      "name": "symbol",
      "outputs": [
        {
          "internalType": "string",
          "name": "",
          "type": "string"
        }
      ],
      "stateMutability": "view",
      "type": "function"
    },
    {
      "inputs": [],
      "name": "totalBonds",
      "outputs": [
        {
          "internalType": "uint256",
          "name": "",
          "type": "uint256"
        }
      ],
      "stateMutability": "view",
      "type": "function"
    },
    {
      "inputs": [],
      "name": "totalSupply",
      "outputs": [
        {
          "internalType": "uint256",
          "name": "",
          "type": "uint256"
        }
      ],
      "stateMutability": "view",
      "type": "function"
    },
    {
      "inputs": [],
      "name": "totalTreasury",
      "outputs": [
        {
          "internalType": "uint256",
          "name": "",
          "type": "uint256"
        }
      ],
      "stateMutability": "view",
      "type": "function"
    },
    {
      "inputs": [
        {
          "internalType": "address",
          "name": "recipient",
          "type": "address"
        },
        {
          "internalType": "uint256",
          "name": "amount",
          "type": "uint256"
        }
      ],
      "name": "transfer",
      "outputs": [
        {
          "internalType": "bool",
          "name": "",
          "type": "bool"
        }
      ],
      "stateMutability": "nonpayable",
      "type": "function"
    },
    {
      "inputs": [
        {
          "internalType": "address",
          "name": "sender",
          "type": "address"
        },
        {
          "internalType": "address",
          "name": "recipient",
          "type": "address"
        },
        {
          "internalType": "uint256",
          "name": "amount",
          "type": "uint256"
        }
      ],
      "name": "transferFrom",
      "outputs": [
        {
          "internalType": "bool",
          "name": "",
          "type": "bool"
        }
      ],
      "stateMutability": "nonpayable",
      "type": "function"
    },
    {
      "inputs": [
        {
          "internalType": "address",
          "name": "newOwner",
          "type": "address"
        }
      ],
      "name": "transferOwnership",
      "outputs": [],
      "stateMutability": "nonpayable",
      "type": "function"
    },
    {
      "inputs": [
        {
          "internalType": "uint256",
          "name": "",
          "type": "uint256"
        }
      ],
      "name": "uri",
      "outputs": [
        {
          "internalType": "string",
          "name": "",
          "type": "string"
        }
      ],
      "stateMutability": "view",
      "type": "function"
    },
    {
      "inputs": [
        {
          "internalType": "uint256",
          "name": "amount",
          "type": "uint256"
        }
      ],
      "name": "withdrawFromTreasuryToBatch",
      "outputs": [],
      "stateMutability": "nonpayable",
      "type": "function"
    },
    {
      "inputs": [
        {
          "internalType": "address",
          "name": "to",
          "type": "address"
        },
        {
          "internalType": "uint256",
          "name": "id",
          "type": "uint256"
        },
        {
          "internalType": "uint256",
          "name": "amount",
          "type": "uint256"
        },
        {
          "internalType": "bytes",
          "name": "data",
          "type": "bytes"
        }
      ],
      "name": "batch",
      "outputs": [],
      "stateMutability": "nonpayable",
      "type": "function"
    }
  ],
  "bytecode": "0x6080604052686c6b935b8bbd4000006002553480156200001e57600080fd5b5060405162005f5438038062005f54833981810160405260808110156200004457600080fd5b81019080805160405193929190846401000000008211156200006557600080fd5b838201915060208201858111156200007c57600080fd5b82518660018202830111640100000000821117156200009a57600080fd5b8083526020830192505050908051906020019080838360005b83811015620000d0578082015181840152602081019050620000b3565b50505050905090810190601f168015620000fe5780820380516001836020036101000a031916815260200191505b50604052602001805160405193929190846401000000008211156200012257600080fd5b838201915060208201858111156200013957600080fd5b82518660018202830111640100000000821117156200015757600080fd5b8083526020830192505050908051906020019080838360005b838110156200018d57808201518184015260208101905062000170565b50505050905090810190601f168015620001bb5780820380516001836020036101000a031916815260200191505b5060405260200180519060200190929190805190602001909291905050506040518060400160405280601181526020017f2e2f2e2e2f5552492f5552492e6a736f6e0000000000000000000000000000008152508484848481848481600390805190602001906200022e92919062000b88565b5080600490805190602001906200024792919062000b88565b506012600560006101000a81548160ff021916908360ff160217905550505060008111620002dd576040517f08c379a00000000000000000000000000000000000000000000000000000000081526004018080602001828103825260158152602001807f45524332304361707065643a206361702069732030000000000000000000000081525060200191505060405180910390fd5b80600681905550506000620002f76200049b60201b60201c565b905080600760006101000a81548173ffffffffffffffffffffffffffffffffffffffff021916908373ffffffffffffffffffffffffffffffffffffffff1602179055508073ffffffffffffffffffffffffffffffffffffffff16600073ffffffffffffffffffffffffffffffffffffffff167f8be0079c531659141344cd1fd0a4f28419497f9722a3daafe3b4186f6b6457e060405160405180910390a35080600981905550620003be620003b1620004a360201b60201c565b82620004cd60201b60201c565b620003da60095483620006ab60201b620045c71790919060201c565b600a8190555062000418620003f46200072f60201b60201c565b620004046200073960201b60201c565b620006ab60201b620045c71790919060201c565b600b81905550620004336000801b336200074360201b60201c565b505050506200044f6301ffc9a760e01b6200075960201b60201c565b62000460816200086360201b60201c565b6200047863d9b67a2660e01b6200075960201b60201c565b62000490630e89341c60e01b6200075960201b60201c565b505050505062000c37565b600033905090565b6000600760009054906101000a900473ffffffffffffffffffffffffffffffffffffffff16905090565b600073ffffffffffffffffffffffffffffffffffffffff168273ffffffffffffffffffffffffffffffffffffffff16141562000571576040517f08c379a000000000000000000000000000000000000000000000000000000000815260040180806020018281038252601f8152602001807f45524332303a206d696e7420746f20746865207a65726f20616464726573730081525060200191505060405180910390fd5b62000585600083836200087f60201b60201c565b620005a1816002546200098160201b62003bd51790919060201c565b600281905550620005ff816000808573ffffffffffffffffffffffffffffffffffffffff1673ffffffffffffffffffffffffffffffffffffffff168152602001908152602001600020546200098160201b62003bd51790919060201c565b6000808473ffffffffffffffffffffffffffffffffffffffff1673ffffffffffffffffffffffffffffffffffffffff168152602001908152602001600020819055508173ffffffffffffffffffffffffffffffffffffffff16600073ffffffffffffffffffffffffffffffffffffffff167fddf252ad1be2c89b69c2b068fc378daa952ba7f163c4a11628f55a4df523b3ef836040518082815260200191505060405180910390a35050565b60008282111562000724576040517f08c379a000000000000000000000000000000000000000000000000000000000815260040180806020018281038252601e8152602001807f536166654d6174683a207375627472616374696f6e206f766572666c6f77000081525060200191505060405180910390fd5b818303905092915050565b6000600254905090565b6000600654905090565b62000755828262000a0a60201b60201c565b5050565b63ffffffff60e01b817bffffffffffffffffffffffffffffffffffffffffffffffffffffffff19161415620007f6576040517f08c379a000000000000000000000000000000000000000000000000000000000815260040180806020018281038252601c8152602001807f4552433136353a20696e76616c696420696e746572666163652069640000000081525060200191505060405180910390fd5b6001600d6000837bffffffffffffffffffffffffffffffffffffffffffffffffffffffff19167bffffffffffffffffffffffffffffffffffffffffffffffffffffffff1916815260200190815260200160002060006101000a81548160ff02191690831515021790555050565b80601090805190602001906200087b92919062000b88565b5050565b6200089783838362000aae60201b62004cfe1760201c565b600073ffffffffffffffffffffffffffffffffffffffff168373ffffffffffffffffffffffffffffffffffffffff1614156200097c57620008dd6200073960201b60201c565b6200090682620008f26200072f60201b60201c565b6200098160201b62003bd51790919060201c565b11156200097b576040517f08c379a00000000000000000000000000000000000000000000000000000000081526004018080602001828103825260198152602001807f45524332304361707065643a206361702065786365656465640000000000000081525060200191505060405180910390fd5b5b505050565b60008082840190508381101562000a00576040517f08c379a000000000000000000000000000000000000000000000000000000000815260040180806020018281038252601b8152602001807f536166654d6174683a206164646974696f6e206f766572666c6f77000000000081525060200191505060405180910390fd5b8091505092915050565b62000a39816008600085815260200190815260200160002060000162000ab360201b62004be71790919060201c565b1562000aaa5762000a4f6200049b60201b60201c565b73ffffffffffffffffffffffffffffffffffffffff168173ffffffffffffffffffffffffffffffffffffffff16837f2f8788117e7eff1d82e926ec794901d17c78024a50270940304540a733656f0d60405160405180910390a45b5050565b505050565b600062000ae3836000018373ffffffffffffffffffffffffffffffffffffffff1660001b62000aeb60201b60201c565b905092915050565b600062000aff838362000b6560201b60201c565b62000b5a57826000018290806001815401808255809150506001900390600052602060002001600090919091909150558260000180549050836001016000848152602001908152602001600020819055506001905062000b5f565b600090505b92915050565b600080836001016000848152602001908152602001600020541415905092915050565b828054600181600116156101000203166002900490600052602060002090601f016020900481019282601f1062000bcb57805160ff191683800117855562000bfc565b8280016001018555821562000bfc579182015b8281111562000bfb57825182559160200191906001019062000bde565b5b50905062000c0b919062000c0f565b5090565b62000c3491905b8082111562000c3057600081600090555060010162000c16565b5090565b90565b61530d8062000c476000396000f3fe608060405234801561001057600080fd5b506004361061027e5760003560e01c80637c39fb261161015c578063c9efae28116100ce578063e985e9c511610087578063e985e9c51461119e578063eb66628a1461121a578063f242432a14611248578063f263c47014611357578063f2fde38b14611375578063fa7daf32146113b95761027e565b8063c9efae281461103c578063ca15c8731461105a578063cfa6097b1461109c578063d1c4e40c146110ba578063d547741f146110d8578063dd62ed3e146111265761027e565b806391d148541161012057806391d1485414610e1957806395d89b4114610e7f578063a217fddf14610f02578063a22cb46514610f20578063a457c2d714610f70578063a9059cbb14610fd65761027e565b80637c39fb2614610cd757806387b16f2c14610d1b578063897534a914610d395780638da5cb5b14610d575780639010d07c14610da15761027e565b806331560d67116101f55780634e1273f4116101b95780634e1273f414610a44578063563df32f14610be55780635b429fd014610c0357806370a0823114610c47578063715018a614610c9f5780637745f53914610ca95761027e565b806331560d6714610855578063355274ea1461088357806336568abe146108a157806339509351146108ef57806345ab3790146109555761027e565b806318160ddd1161024757806318160ddd146104da57806323b872dd146104f8578063248a9ca31461057e5780632eb2c2d6146105c05780632f2ff15d146107e3578063313ce567146108315761027e565b8062fdd58e1461028357806301ffc9a7146102e557806306fdde031461034a578063095ea7b3146103cd5780630e89341c14610433575b600080fd5b6102cf6004803603604081101561029957600080fd5b81019080803573ffffffffffffffffffffffffffffffffffffffff169060200190929190803590602001909291905050506113e7565b6040518082815260200191505060405180910390f35b610330600480360360208110156102fb57600080fd5b8101908080357bffffffffffffffffffffffffffffffffffffffffffffffffffffffff191690602001909291905050506114c7565b604051808215151515815260200191505060405180910390f35b61035261152f565b6040518080602001828103825283818151815260200191508051906020019080838360005b83811015610392578082015181840152602081019050610377565b50505050905090810190601f1680156103bf5780820380516001836020036101000a031916815260200191505b509250505060405180910390f35b610419600480360360408110156103e357600080fd5b81019080803573ffffffffffffffffffffffffffffffffffffffff169060200190929190803590602001909291905050506115d1565b604051808215151515815260200191505060405180910390f35b61045f6004803603602081101561044957600080fd5b81019080803590602001909291905050506115ef565b6040518080602001828103825283818151815260200191508051906020019080838360005b8381101561049f578082015181840152602081019050610484565b50505050905090810190601f1680156104cc5780820380516001836020036101000a031916815260200191505b509250505060405180910390f35b6104e2611693565b6040518082815260200191505060405180910390f35b6105646004803603606081101561050e57600080fd5b81019080803573ffffffffffffffffffffffffffffffffffffffff169060200190929190803573ffffffffffffffffffffffffffffffffffffffff1690602001909291908035906020019092919050505061169d565b604051808215151515815260200191505060405180910390f35b6105aa6004803603602081101561059457600080fd5b8101908080359060200190929190505050611776565b6040518082815260200191505060405180910390f35b6107e1600480360360a08110156105d657600080fd5b81019080803573ffffffffffffffffffffffffffffffffffffffff169060200190929190803573ffffffffffffffffffffffffffffffffffffffff1690602001909291908035906020019064010000000081111561063357600080fd5b82018360208201111561064557600080fd5b8035906020019184602083028401116401000000008311171561066757600080fd5b919080806020026020016040519081016040528093929190818152602001838360200280828437600081840152601f19601f820116905080830192505050505050509192919290803590602001906401000000008111156106c757600080fd5b8201836020820111156106d957600080fd5b803590602001918460208302840111640100000000831117156106fb57600080fd5b919080806020026020016040519081016040528093929190818152602001838360200280828437600081840152601f19601f8201169050808301925050505050505091929192908035906020019064010000000081111561075b57600080fd5b82018360208201111561076d57600080fd5b8035906020019184600183028401116401000000008311171561078f57600080fd5b91908080601f016020809104026020016040519081016040528093929190818152602001838380828437600081840152601f19601f820116905080830192505050505050509192919290505050611796565b005b61082f600480360360408110156107f957600080fd5b8101908080359060200190929190803573ffffffffffffffffffffffffffffffffffffffff169060200190929190505050611c24565b005b610839611cae565b604051808260ff1660ff16815260200191505060405180910390f35b6108816004803603602081101561086b57600080fd5b8101908080359060200190929190505050611cc5565b005b61088b611df9565b6040518082815260200191505060405180910390f35b6108ed600480360360408110156108b757600080fd5b8101908080359060200190929190803573ffffffffffffffffffffffffffffffffffffffff169060200190929190505050611e03565b005b61093b6004803603604081101561090557600080fd5b81019080803573ffffffffffffffffffffffffffffffffffffffff16906020019092919080359060200190929190505050611e9c565b604051808215151515815260200191505060405180910390f35b610a426004803603608081101561096b57600080fd5b81019080803573ffffffffffffffffffffffffffffffffffffffff1690602001909291908035906020019092919080359060200190929190803590602001906401000000008111156109bc57600080fd5b8201836020820111156109ce57600080fd5b803590602001918460018302840111640100000000831117156109f057600080fd5b91908080601f016020809104026020016040519081016040528093929190818152602001838380828437600081840152601f19601f820116905080830192505050505050509192919290505050611f4f565b005b610b8e60048036036040811015610a5a57600080fd5b8101908080359060200190640100000000811115610a7757600080fd5b820183602082011115610a8957600080fd5b80359060200191846020830284011164010000000083111715610aab57600080fd5b919080806020026020016040519081016040528093929190818152602001838360200280828437600081840152601f19601f82011690508083019250505050505050919291929080359060200190640100000000811115610b0b57600080fd5b820183602082011115610b1d57600080fd5b80359060200191846020830284011164010000000083111715610b3f57600080fd5b919080806020026020016040519081016040528093929190818152602001838360200280828437600081840152601f19601f8201169050808301925050505050505091929192905050506120d5565b6040518080602001828103825283818151815260200191508051906020019060200280838360005b83811015610bd1578082015181840152602081019050610bb6565b505050509050019250505060405180910390f35b610bed6121d3565b6040518082815260200191505060405180910390f35b610c4560048036036020811015610c1957600080fd5b81019080803573ffffffffffffffffffffffffffffffffffffffff1690602001909291905050506121d9565b005b610c8960048036036020811015610c5d57600080fd5b81019080803573ffffffffffffffffffffffffffffffffffffffff1690602001909291905050506122ca565b6040518082815260200191505060405180910390f35b610ca7612312565b005b610cd560048036036020811015610cbf57600080fd5b8101908080359060200190929190505050612482565b005b610d1960048036036020811015610ced57600080fd5b81019080803573ffffffffffffffffffffffffffffffffffffffff1690602001909291905050506126a6565b005b610d23612797565b6040518082815260200191505060405180910390f35b610d416127a1565b6040518082815260200191505060405180910390f35b610d5f6127ab565b604051808273ffffffffffffffffffffffffffffffffffffffff1673ffffffffffffffffffffffffffffffffffffffff16815260200191505060405180910390f35b610dd760048036036040811015610db757600080fd5b8101908080359060200190929190803590602001909291905050506127d5565b604051808273ffffffffffffffffffffffffffffffffffffffff1673ffffffffffffffffffffffffffffffffffffffff16815260200191505060405180910390f35b610e6560048036036040811015610e2f57600080fd5b8101908080359060200190929190803573ffffffffffffffffffffffffffffffffffffffff169060200190929190505050612807565b604051808215151515815260200191505060405180910390f35b610e87612839565b6040518080602001828103825283818151815260200191508051906020019080838360005b83811015610ec7578082015181840152602081019050610eac565b50505050905090810190601f168015610ef45780820380516001836020036101000a031916815260200191505b509250505060405180910390f35b610f0a6128db565b6040518082815260200191505060405180910390f35b610f6e60048036036040811015610f3657600080fd5b81019080803573ffffffffffffffffffffffffffffffffffffffff1690602001909291908035151590602001909291905050506128e2565b005b610fbc60048036036040811015610f8657600080fd5b81019080803573ffffffffffffffffffffffffffffffffffffffff16906020019092919080359060200190929190505050612a7d565b604051808215151515815260200191505060405180910390f35b61102260048036036040811015610fec57600080fd5b81019080803573ffffffffffffffffffffffffffffffffffffffff16906020019092919080359060200190929190505050612b4a565b604051808215151515815260200191505060405180910390f35b611044612b68565b6040518082815260200191505060405180910390f35b6110866004803603602081101561107057600080fd5b8101908080359060200190929190505050612b6e565b6040518082815260200191505060405180910390f35b6110a4612b95565b6040518082815260200191505060405180910390f35b6110c2612b9b565b6040518082815260200191505060405180910390f35b611124600480360360408110156110ee57600080fd5b8101908080359060200190929190803573ffffffffffffffffffffffffffffffffffffffff169060200190929190505050612bd4565b005b6111886004803603604081101561113c57600080fd5b81019080803573ffffffffffffffffffffffffffffffffffffffff169060200190929190803573ffffffffffffffffffffffffffffffffffffffff169060200190929190505050612c5e565b6040518082815260200191505060405180910390f35b611200600480360360408110156111b457600080fd5b81019080803573ffffffffffffffffffffffffffffffffffffffff169060200190929190803573ffffffffffffffffffffffffffffffffffffffff169060200190929190505050612ce5565b604051808215151515815260200191505060405180910390f35b6112466004803603602081101561123057600080fd5b8101908080359060200190929190505050612d79565b005b611355600480360360a081101561125e57600080fd5b81019080803573ffffffffffffffffffffffffffffffffffffffff169060200190929190803573ffffffffffffffffffffffffffffffffffffffff1690602001909291908035906020019092919080359060200190929190803590602001906401000000008111156112cf57600080fd5b8201836020820111156112e157600080fd5b8035906020019184600183028401116401000000008311171561130357600080fd5b91908080601f016020809104026020016040519081016040528093929190818152602001838380828437600081840152601f19601f820116905080830192505050505050509192919290505050612eb1565b005b61135f613226565b6040518082815260200191505060405180910390f35b6113b76004803603602081101561138b57600080fd5b81019080803573ffffffffffffffffffffffffffffffffffffffff169060200190929190505050613230565b005b6113e5600480360360208110156113cf57600080fd5b8101908080359060200190929190505050613425565b005b60008073ffffffffffffffffffffffffffffffffffffffff168373ffffffffffffffffffffffffffffffffffffffff16141561146e576040517f08c379a000000000000000000000000000000000000000000000000000000000815260040180806020018281038252602b815260200180614f56602b913960400191505060405180910390fd5b600e600083815260200190815260200160002060008473ffffffffffffffffffffffffffffffffffffffff1673ffffffffffffffffffffffffffffffffffffffff16815260200190815260200160002054905092915050565b6000600d6000837bffffffffffffffffffffffffffffffffffffffffffffffffffffffff19167bffffffffffffffffffffffffffffffffffffffffffffffffffffffff1916815260200190815260200160002060009054906101000a900460ff169050919050565b606060038054600181600116156101000203166002900480601f0160208091040260200160405190810160405280929190818152602001828054600181600116156101000203166002900480156115c75780601f1061159c576101008083540402835291602001916115c7565b820191906000526020600020905b8154815290600101906020018083116115aa57829003601f168201915b5050505050905090565b60006115e56115de613653565b848461365b565b6001905092915050565b606060108054600181600116156101000203166002900480601f0160208091040260200160405190810160405280929190818152602001828054600181600116156101000203166002900480156116875780601f1061165c57610100808354040283529160200191611687565b820191906000526020600020905b81548152906001019060200180831161166a57829003601f168201915b50505050509050919050565b6000600254905090565b60006116aa848484613852565b61176b846116b6613653565b6117668560405180606001604052806028815260200161517860289139600160008b73ffffffffffffffffffffffffffffffffffffffff1673ffffffffffffffffffffffffffffffffffffffff168152602001908152602001600020600061171c613653565b73ffffffffffffffffffffffffffffffffffffffff1673ffffffffffffffffffffffffffffffffffffffff16815260200190815260200160002054613b139092919063ffffffff16565b61365b565b600190509392505050565b600060086000838152602001908152602001600020600201549050919050565b81518351146117f0576040517f08c379a000000000000000000000000000000000000000000000000000000000815260040180806020018281038252602881526020018061523b6028913960400191505060405180910390fd5b600073ffffffffffffffffffffffffffffffffffffffff168473ffffffffffffffffffffffffffffffffffffffff161415611876576040517f08c379a00000000000000000000000000000000000000000000000000000000081526004018080602001828103825260258152602001806150bc6025913960400191505060405180910390fd5b61187e613653565b73ffffffffffffffffffffffffffffffffffffffff168573ffffffffffffffffffffffffffffffffffffffff1614806118c457506118c3856118be613653565b612ce5565b5b611919576040517f08c379a00000000000000000000000000000000000000000000000000000000081526004018080602001828103825260328152602001806150e16032913960400191505060405180910390fd5b6000611923613653565b9050611933818787878787613bcd565b60008090505b8451811015611b0757600085828151811061195057fe5b60200260200101519050600085838151811061196857fe5b602002602001015190506119ef816040518060600160405280602a8152602001615113602a9139600e600086815260200190815260200160002060008d73ffffffffffffffffffffffffffffffffffffffff1673ffffffffffffffffffffffffffffffffffffffff16815260200190815260200160002054613b139092919063ffffffff16565b600e600084815260200190815260200160002060008b73ffffffffffffffffffffffffffffffffffffffff1673ffffffffffffffffffffffffffffffffffffffff16815260200190815260200160002081905550611aa681600e600085815260200190815260200160002060008b73ffffffffffffffffffffffffffffffffffffffff1673ffffffffffffffffffffffffffffffffffffffff16815260200190815260200160002054613bd590919063ffffffff16565b600e600084815260200190815260200160002060008a73ffffffffffffffffffffffffffffffffffffffff1673ffffffffffffffffffffffffffffffffffffffff168152602001908152602001600020819055505050806001019050611939565b508473ffffffffffffffffffffffffffffffffffffffff168673ffffffffffffffffffffffffffffffffffffffff168273ffffffffffffffffffffffffffffffffffffffff167f4a39dc06d4c0dbc64b70af90fd698a233a518aa5d07e595d983b8c0526c8f7fb8787604051808060200180602001838103835285818151815260200191508051906020019060200280838360005b83811015611bb7578082015181840152602081019050611b9c565b50505050905001838103825284818151815260200191508051906020019060200280838360005b83811015611bf9578082015181840152602081019050611bde565b5050505090500194505050505060405180910390a4611c1c818787878787613c5d565b505050505050565b611c4b6008600084815260200190815260200160002060020154611c46613653565b612807565b611ca0576040517f08c379a000000000000000000000000000000000000000000000000000000000815260040180806020018281038252602f815260200180614efd602f913960400191505060405180910390fd5b611caa82826140d5565b5050565b6000600560009054906101000a900460ff16905090565b611ccd613653565b73ffffffffffffffffffffffffffffffffffffffff16611ceb6127ab565b73ffffffffffffffffffffffffffffffffffffffff1614611d74576040517f08c379a00000000000000000000000000000000000000000000000000000000081526004018080602001828103825260208152602001807f4f776e61626c653a2063616c6c6572206973206e6f7420746865206f776e657281525060200191505060405180910390fd5b600b54811115611dec576040517f08c379a000000000000000000000000000000000000000000000000000000000815260040180806020018281038252601b8152602001807f43616e6e6f74206d696e74206d6f7265207468616e206361702829000000000081525060200191505060405180910390fd5b611df63382614169565b50565b6000600654905090565b611e0b613653565b73ffffffffffffffffffffffffffffffffffffffff168173ffffffffffffffffffffffffffffffffffffffff1614611e8e576040517f08c379a000000000000000000000000000000000000000000000000000000000815260040180806020018281038252602f8152602001806152a9602f913960400191505060405180910390fd5b611e988282614330565b5050565b6000611f45611ea9613653565b84611f408560016000611eba613653565b73ffffffffffffffffffffffffffffffffffffffff1673ffffffffffffffffffffffffffffffffffffffff16815260200190815260200160002060008973ffffffffffffffffffffffffffffffffffffffff1673ffffffffffffffffffffffffffffffffffffffff16815260200190815260200160002054613bd590919063ffffffff16565b61365b565b6001905092915050565b611f8e60405180807f62617463684f776e657200000000000000000000000000000000000000000000815250600a019050604051809103902033612807565b611f9757600080fd5b611f9f6127a1565b821115611ff7576040517f08c379a000000000000000000000000000000000000000000000000000000000815260040180806020018281038252603b81526020018061513d603b913960400191505060405180910390fd5b600182111561206e576040517f08c379a000000000000000000000000000000000000000000000000000000000815260040180806020018281038252600c8152602001807f31207065722077616c6c6574000000000000000000000000000000000000000081525060200191505060405180910390fd5b6000600c60008673ffffffffffffffffffffffffffffffffffffffff1673ffffffffffffffffffffffffffffffffffffffff16815260200190815260200160002054146120ba57600080fd5b6120c382613425565b6120cf848484846143c4565b50505050565b60608151835114612131576040517f08c379a00000000000000000000000000000000000000000000000000000000081526004018080602001828103825260298152602001806152126029913960400191505060405180910390fd5b606083516040519080825280602002602001820160405280156121635781602001602082028038833980820191505090505b50905060008090505b84518110156121c8576121a585828151811061218457fe5b602002602001015185838151811061219857fe5b60200260200101516113e7565b8282815181106121b157fe5b60200260200101818152505080600101905061216c565b508091505092915050565b60095481565b6121e1613653565b73ffffffffffffffffffffffffffffffffffffffff166121ff6127ab565b73ffffffffffffffffffffffffffffffffffffffff1614612288576040517f08c379a00000000000000000000000000000000000000000000000000000000081526004018080602001828103825260208152602001807f4f776e61626c653a2063616c6c6572206973206e6f7420746865206f776e657281525060200191505060405180910390fd5b6122c760405180807f62617463684f776e657200000000000000000000000000000000000000000000815250600a019050604051809103902082612bd4565b50565b60008060008373ffffffffffffffffffffffffffffffffffffffff1673ffffffffffffffffffffffffffffffffffffffff168152602001908152602001600020549050919050565b61231a613653565b73ffffffffffffffffffffffffffffffffffffffff166123386127ab565b73ffffffffffffffffffffffffffffffffffffffff16146123c1576040517f08c379a00000000000000000000000000000000000000000000000000000000081526004018080602001828103825260208152602001807f4f776e61626c653a2063616c6c6572206973206e6f7420746865206f776e657281525060200191505060405180910390fd5b600073ffffffffffffffffffffffffffffffffffffffff16600760009054906101000a900473ffffffffffffffffffffffffffffffffffffffff1673ffffffffffffffffffffffffffffffffffffffff167f8be0079c531659141344cd1fd0a4f28419497f9722a3daafe3b4186f6b6457e060405160405180910390a36000600760006101000a81548173ffffffffffffffffffffffffffffffffffffffff021916908373ffffffffffffffffffffffffffffffffffffffff160217905550565b6124c160405180807f62617463684f776e657200000000000000000000000000000000000000000000815250600a019050604051809103902033612807565b6124ca57600080fd5b6124d2611df9565b6124e782600954613bd590919063ffffffff16565b111561253e576040517f08c379a00000000000000000000000000000000000000000000000000000000081526004018080602001828103825260278152602001806150956027913960400191505060405180910390fd5b80600c60003373ffffffffffffffffffffffffffffffffffffffff1673ffffffffffffffffffffffffffffffffffffffff1681526020019081526020016000205411156125f3576040517f08c379a00000000000000000000000000000000000000000000000000000000081526004018080602001828103825260208152602001807f43616e6e6f74206465706f736974206d6f7265207468616e20796f75206f776e81525060200191505060405180910390fd5b61260881600954613bd590919063ffffffff16565b60098190555061266081600c60003373ffffffffffffffffffffffffffffffffffffffff1673ffffffffffffffffffffffffffffffffffffffff168152602001908152602001600020546145c790919063ffffffff16565b600c60003373ffffffffffffffffffffffffffffffffffffffff1673ffffffffffffffffffffffffffffffffffffffff1681526020019081526020016000208190555050565b6126ae613653565b73ffffffffffffffffffffffffffffffffffffffff166126cc6127ab565b73ffffffffffffffffffffffffffffffffffffffff1614612755576040517f08c379a00000000000000000000000000000000000000000000000000000000081526004018080602001828103825260208152602001807f4f776e61626c653a2063616c6c6572206973206e6f7420746865206f776e657281525060200191505060405180910390fd5b61279460405180807f62617463684f776e657200000000000000000000000000000000000000000000815250600a019050604051809103902082611c24565b50565b6000600b54905090565b6000600954905090565b6000600760009054906101000a900473ffffffffffffffffffffffffffffffffffffffff16905090565b60006127ff826008600086815260200190815260200160002060000161464a90919063ffffffff16565b905092915050565b6000612831826008600086815260200190815260200160002060000161466490919063ffffffff16565b905092915050565b606060048054600181600116156101000203166002900480601f0160208091040260200160405190810160405280929190818152602001828054600181600116156101000203166002900480156128d15780601f106128a6576101008083540402835291602001916128d1565b820191906000526020600020905b8154815290600101906020018083116128b457829003601f168201915b5050505050905090565b6000801b81565b8173ffffffffffffffffffffffffffffffffffffffff16612901613653565b73ffffffffffffffffffffffffffffffffffffffff16141561296e576040517f08c379a00000000000000000000000000000000000000000000000000000000081526004018080602001828103825260298152602001806151e96029913960400191505060405180910390fd5b80600f600061297b613653565b73ffffffffffffffffffffffffffffffffffffffff1673ffffffffffffffffffffffffffffffffffffffff16815260200190815260200160002060008473ffffffffffffffffffffffffffffffffffffffff1673ffffffffffffffffffffffffffffffffffffffff16815260200190815260200160002060006101000a81548160ff0219169083151502179055508173ffffffffffffffffffffffffffffffffffffffff16612a28613653565b73ffffffffffffffffffffffffffffffffffffffff167f17307eab39ab6107e8899845ad3d59bd9653f200f220920489ca2b5937696c3183604051808215151515815260200191505060405180910390a35050565b6000612b40612a8a613653565b84612b3b856040518060600160405280602581526020016152846025913960016000612ab4613653565b73ffffffffffffffffffffffffffffffffffffffff1673ffffffffffffffffffffffffffffffffffffffff16815260200190815260200160002060008a73ffffffffffffffffffffffffffffffffffffffff1673ffffffffffffffffffffffffffffffffffffffff16815260200190815260200160002054613b139092919063ffffffff16565b61365b565b6001905092915050565b6000612b5e612b57613653565b8484613852565b6001905092915050565b600b5481565b6000612b8e60086000848152602001908152602001600020600001614694565b9050919050565b600a5481565b60405180807f62617463684f776e657200000000000000000000000000000000000000000000815250600a019050604051809103902081565b612bfb6008600084815260200190815260200160002060020154612bf6613653565b612807565b612c50576040517f08c379a00000000000000000000000000000000000000000000000000000000081526004018080602001828103825260308152602001806150656030913960400191505060405180910390fd5b612c5a8282614330565b5050565b6000600160008473ffffffffffffffffffffffffffffffffffffffff1673ffffffffffffffffffffffffffffffffffffffff16815260200190815260200160002060008373ffffffffffffffffffffffffffffffffffffffff1673ffffffffffffffffffffffffffffffffffffffff16815260200190815260200160002054905092915050565b6000600f60008473ffffffffffffffffffffffffffffffffffffffff1673ffffffffffffffffffffffffffffffffffffffff16815260200190815260200160002060008373ffffffffffffffffffffffffffffffffffffffff1673ffffffffffffffffffffffffffffffffffffffff16815260200190815260200160002060009054906101000a900460ff16905092915050565b612d81613653565b73ffffffffffffffffffffffffffffffffffffffff16612d9f6127ab565b73ffffffffffffffffffffffffffffffffffffffff1614612e28576040517f08c379a00000000000000000000000000000000000000000000000000000000081526004018080602001828103825260208152602001807f4f776e61626c653a2063616c6c6572206973206e6f7420746865206f776e657281525060200191505060405180910390fd5b600b548110612e82576040517f08c379a000000000000000000000000000000000000000000000000000000000815260040180806020018281038252602a815260200180614f2c602a913960400191505060405180910390fd5b612e93612e8d6127ab565b82614169565b612ea881600954613bd590919063ffffffff16565b60098190555050565b600073ffffffffffffffffffffffffffffffffffffffff168473ffffffffffffffffffffffffffffffffffffffff161415612f37576040517f08c379a00000000000000000000000000000000000000000000000000000000081526004018080602001828103825260258152602001806150bc6025913960400191505060405180910390fd5b612f3f613653565b73ffffffffffffffffffffffffffffffffffffffff168573ffffffffffffffffffffffffffffffffffffffff161480612f855750612f8485612f7f613653565b612ce5565b5b612fda576040517f08c379a0000000000000000000000000000000000000000000000000000000008152600401808060200182810382526029815260200180614ff16029913960400191505060405180910390fd5b6000612fe4613653565b9050613004818787612ff5886146a9565b612ffe886146a9565b87613bcd565b613081836040518060600160405280602a8152602001615113602a9139600e600088815260200190815260200160002060008a73ffffffffffffffffffffffffffffffffffffffff1673ffffffffffffffffffffffffffffffffffffffff16815260200190815260200160002054613b139092919063ffffffff16565b600e600086815260200190815260200160002060008873ffffffffffffffffffffffffffffffffffffffff1673ffffffffffffffffffffffffffffffffffffffff1681526020019081526020016000208190555061313883600e600087815260200190815260200160002060008873ffffffffffffffffffffffffffffffffffffffff1673ffffffffffffffffffffffffffffffffffffffff16815260200190815260200160002054613bd590919063ffffffff16565b600e600086815260200190815260200160002060008773ffffffffffffffffffffffffffffffffffffffff1673ffffffffffffffffffffffffffffffffffffffff168152602001908152602001600020819055508473ffffffffffffffffffffffffffffffffffffffff168673ffffffffffffffffffffffffffffffffffffffff168273ffffffffffffffffffffffffffffffffffffffff167fc3d58168c5ae7397731d063d5bbf3d657854427343f4c083240f7aacaa2d0f628787604051808381526020018281526020019250505060405180910390a461321e818787878787614702565b505050505050565b6000600a54905090565b613238613653565b73ffffffffffffffffffffffffffffffffffffffff166132566127ab565b73ffffffffffffffffffffffffffffffffffffffff16146132df576040517f08c379a00000000000000000000000000000000000000000000000000000000081526004018080602001828103825260208152602001807f4f776e61626c653a2063616c6c6572206973206e6f7420746865206f776e657281525060200191505060405180910390fd5b600073ffffffffffffffffffffffffffffffffffffffff168173ffffffffffffffffffffffffffffffffffffffff161415613365576040517f08c379a0000000000000000000000000000000000000000000000000000000008152600401808060200182810382526026815260200180614f816026913960400191505060405180910390fd5b8073ffffffffffffffffffffffffffffffffffffffff16600760009054906101000a900473ffffffffffffffffffffffffffffffffffffffff1673ffffffffffffffffffffffffffffffffffffffff167f8be0079c531659141344cd1fd0a4f28419497f9722a3daafe3b4186f6b6457e060405160405180910390a380600760006101000a81548173ffffffffffffffffffffffffffffffffffffffff021916908373ffffffffffffffffffffffffffffffffffffffff16021790555050565b61346460405180807f62617463684f776e657200000000000000000000000000000000000000000000815250600a019050604051809103902033612807565b61346d57600080fd5b6000613484826009546145c790919063ffffffff16565b10156134db576040517f08c379a0000000000000000000000000000000000000000000000000000000008152600401808060200182810382526028815260200180614fc96028913960400191505060405180910390fd5b670de0b6b3a764000081111561353c576040517f08c379a00000000000000000000000000000000000000000000000000000000081526004018080602001828103825260258152602001806150406025913960400191505060405180910390fd5b6000600c60003373ffffffffffffffffffffffffffffffffffffffff1673ffffffffffffffffffffffffffffffffffffffff16815260200190815260200160002054146135f1576040517f08c379a00000000000000000000000000000000000000000000000000000000081526004018080602001828103825260188152602001807f416c7265616479206d696e74656420746f2077616c6c6574000000000000000081525060200191505060405180910390fd5b613606816009546145c790919063ffffffff16565b60098190555080600c60003373ffffffffffffffffffffffffffffffffffffffff1673ffffffffffffffffffffffffffffffffffffffff1681526020019081526020016000208190555050565b600033905090565b600073ffffffffffffffffffffffffffffffffffffffff168373ffffffffffffffffffffffffffffffffffffffff1614156136e1576040517f08c379a00000000000000000000000000000000000000000000000000000000081526004018080602001828103825260248152602001806151c56024913960400191505060405180910390fd5b600073ffffffffffffffffffffffffffffffffffffffff168273ffffffffffffffffffffffffffffffffffffffff161415613767576040517f08c379a0000000000000000000000000000000000000000000000000000000008152600401808060200182810382526022815260200180614fa76022913960400191505060405180910390fd5b80600160008573ffffffffffffffffffffffffffffffffffffffff1673ffffffffffffffffffffffffffffffffffffffff16815260200190815260200160002060008473ffffffffffffffffffffffffffffffffffffffff1673ffffffffffffffffffffffffffffffffffffffff168152602001908152602001600020819055508173ffffffffffffffffffffffffffffffffffffffff168373ffffffffffffffffffffffffffffffffffffffff167f8c5be1e5ebec7d5bd14f71427d1e84f3dd0314c0f7b2291e5b200ac8c7c3b925836040518082815260200191505060405180910390a3505050565b600073ffffffffffffffffffffffffffffffffffffffff168373ffffffffffffffffffffffffffffffffffffffff1614156138d8576040517f08c379a00000000000000000000000000000000000000000000000000000000081526004018080602001828103825260258152602001806151a06025913960400191505060405180910390fd5b600073ffffffffffffffffffffffffffffffffffffffff168273ffffffffffffffffffffffffffffffffffffffff16141561395e576040517f08c379a0000000000000000000000000000000000000000000000000000000008152600401808060200182810382526023815260200180614eb26023913960400191505060405180910390fd5b613969838383614af8565b6139d48160405180606001604052806026815260200161501a602691396000808773ffffffffffffffffffffffffffffffffffffffff1673ffffffffffffffffffffffffffffffffffffffff16815260200190815260200160002054613b139092919063ffffffff16565b6000808573ffffffffffffffffffffffffffffffffffffffff1673ffffffffffffffffffffffffffffffffffffffff16815260200190815260200160002081905550613a67816000808573ffffffffffffffffffffffffffffffffffffffff1673ffffffffffffffffffffffffffffffffffffffff16815260200190815260200160002054613bd590919063ffffffff16565b6000808473ffffffffffffffffffffffffffffffffffffffff1673ffffffffffffffffffffffffffffffffffffffff168152602001908152602001600020819055508173ffffffffffffffffffffffffffffffffffffffff168373ffffffffffffffffffffffffffffffffffffffff167fddf252ad1be2c89b69c2b068fc378daa952ba7f163c4a11628f55a4df523b3ef836040518082815260200191505060405180910390a3505050565b6000838311158290613bc0576040517f08c379a00000000000000000000000000000000000000000000000000000000081526004018080602001828103825283818151815260200191508051906020019080838360005b83811015613b85578082015181840152602081019050613b6a565b50505050905090810190601f168015613bb25780820380516001836020036101000a031916815260200191505b509250505060405180910390fd5b5082840390509392505050565b505050505050565b600080828401905083811015613c53576040517f08c379a000000000000000000000000000000000000000000000000000000000815260040180806020018281038252601b8152602001807f536166654d6174683a206164646974696f6e206f766572666c6f77000000000081525060200191505060405180910390fd5b8091505092915050565b613c7c8473ffffffffffffffffffffffffffffffffffffffff16614bd4565b156140cd578373ffffffffffffffffffffffffffffffffffffffff1663bc197c8187878686866040518663ffffffff1660e01b8152600401808673ffffffffffffffffffffffffffffffffffffffff1673ffffffffffffffffffffffffffffffffffffffff1681526020018573ffffffffffffffffffffffffffffffffffffffff1673ffffffffffffffffffffffffffffffffffffffff168152602001806020018060200180602001848103845287818151815260200191508051906020019060200280838360005b83811015613d60578082015181840152602081019050613d45565b50505050905001848103835286818151815260200191508051906020019060200280838360005b83811015613da2578082015181840152602081019050613d87565b50505050905001848103825285818151815260200191508051906020019080838360005b83811015613de1578082015181840152602081019050613dc6565b50505050905090810190601f168015613e0e5780820380516001836020036101000a031916815260200191505b5098505050505050505050602060405180830381600087803b158015613e3357600080fd5b505af1925050508015613e6757506040513d6020811015613e5357600080fd5b810190808051906020019092919050505060015b61402e576000604051905060008152600115613f305760443d1015613e8f5760009050613f30565b60046000803e60005160e01c6308c379a08114613eb0576000915050613f30565b60043d036004833e81513d602482011167ffffffffffffffff82111715613edc57600092505050613f30565b808301805167ffffffffffffffff811115613efe576000945050505050613f30565b8060208301013d8601811115613f1c57600095505050505050613f30565b601f19601f82011660405282955050505050505b80613f3b5750613fdd565b806040517f08c379a00000000000000000000000000000000000000000000000000000000081526004018080602001828103825283818151815260200191508051906020019080838360005b83811015613fa2578082015181840152602081019050613f87565b50505050905090810190601f168015613fcf5780820380516001836020036101000a031916815260200191505b509250505060405180910390fd5b6040517f08c379a0000000000000000000000000000000000000000000000000000000008152600401808060200182810382526034815260200180614e5c6034913960400191505060405180910390fd5b63bc197c8160e01b7bffffffffffffffffffffffffffffffffffffffffffffffffffffffff1916817bffffffffffffffffffffffffffffffffffffffffffffffffffffffff1916146140cb576040517f08c379a0000000000000000000000000000000000000000000000000000000008152600401808060200182810382526028815260200180614ed56028913960400191505060405180910390fd5b505b505050505050565b6140fd8160086000858152602001908152602001600020600001614be790919063ffffffff16565b156141655761410a613653565b73ffffffffffffffffffffffffffffffffffffffff168173ffffffffffffffffffffffffffffffffffffffff16837f2f8788117e7eff1d82e926ec794901d17c78024a50270940304540a733656f0d60405160405180910390a45b5050565b600073ffffffffffffffffffffffffffffffffffffffff168273ffffffffffffffffffffffffffffffffffffffff16141561420c576040517f08c379a000000000000000000000000000000000000000000000000000000000815260040180806020018281038252601f8152602001807f45524332303a206d696e7420746f20746865207a65726f20616464726573730081525060200191505060405180910390fd5b61421860008383614af8565b61422d81600254613bd590919063ffffffff16565b600281905550614284816000808573ffffffffffffffffffffffffffffffffffffffff1673ffffffffffffffffffffffffffffffffffffffff16815260200190815260200160002054613bd590919063ffffffff16565b6000808473ffffffffffffffffffffffffffffffffffffffff1673ffffffffffffffffffffffffffffffffffffffff168152602001908152602001600020819055508173ffffffffffffffffffffffffffffffffffffffff16600073ffffffffffffffffffffffffffffffffffffffff167fddf252ad1be2c89b69c2b068fc378daa952ba7f163c4a11628f55a4df523b3ef836040518082815260200191505060405180910390a35050565b6143588160086000858152602001908152602001600020600001614c1790919063ffffffff16565b156143c057614365613653565b73ffffffffffffffffffffffffffffffffffffffff168173ffffffffffffffffffffffffffffffffffffffff16837ff6391f5c32d9c69d2a47ea670b442974b53935d1edc7fd64eb21e047a839171b60405160405180910390a45b5050565b600073ffffffffffffffffffffffffffffffffffffffff168473ffffffffffffffffffffffffffffffffffffffff16141561444a576040517f08c379a00000000000000000000000000000000000000000000000000000000081526004018080602001828103825260218152602001806152636021913960400191505060405180910390fd5b6000614454613653565b905061447581600087614466886146a9565b61446f886146a9565b87613bcd565b6144d883600e600087815260200190815260200160002060008873ffffffffffffffffffffffffffffffffffffffff1673ffffffffffffffffffffffffffffffffffffffff16815260200190815260200160002054613bd590919063ffffffff16565b600e600086815260200190815260200160002060008773ffffffffffffffffffffffffffffffffffffffff1673ffffffffffffffffffffffffffffffffffffffff168152602001908152602001600020819055508473ffffffffffffffffffffffffffffffffffffffff16600073ffffffffffffffffffffffffffffffffffffffff168273ffffffffffffffffffffffffffffffffffffffff167fc3d58168c5ae7397731d063d5bbf3d657854427343f4c083240f7aacaa2d0f628787604051808381526020018281526020019250505060405180910390a46145c081600087878787614702565b5050505050565b60008282111561463f576040517f08c379a000000000000000000000000000000000000000000000000000000000815260040180806020018281038252601e8152602001807f536166654d6174683a207375627472616374696f6e206f766572666c6f77000081525060200191505060405180910390fd5b818303905092915050565b60006146598360000183614c47565b60001c905092915050565b600061468c836000018373ffffffffffffffffffffffffffffffffffffffff1660001b614cca565b905092915050565b60006146a282600001614ced565b9050919050565b60608060016040519080825280602002602001820160405280156146dc5781602001602082028038833980820191505090505b50905082816000815181106146ed57fe5b60200260200101818152505080915050919050565b6147218473ffffffffffffffffffffffffffffffffffffffff16614bd4565b15614af0578373ffffffffffffffffffffffffffffffffffffffff1663f23a6e6187878686866040518663ffffffff1660e01b8152600401808673ffffffffffffffffffffffffffffffffffffffff1673ffffffffffffffffffffffffffffffffffffffff1681526020018573ffffffffffffffffffffffffffffffffffffffff1673ffffffffffffffffffffffffffffffffffffffff16815260200184815260200183815260200180602001828103825283818151815260200191508051906020019080838360005b838110156148065780820151818401526020810190506147eb565b50505050905090810190601f1680156148335780820380516001836020036101000a031916815260200191505b509650505050505050602060405180830381600087803b15801561485657600080fd5b505af192505050801561488a57506040513d602081101561487657600080fd5b810190808051906020019092919050505060015b614a515760006040519050600081526001156149535760443d10156148b25760009050614953565b60046000803e60005160e01c6308c379a081146148d3576000915050614953565b60043d036004833e81513d602482011167ffffffffffffffff821117156148ff57600092505050614953565b808301805167ffffffffffffffff811115614921576000945050505050614953565b8060208301013d860181111561493f57600095505050505050614953565b601f19601f82011660405282955050505050505b8061495e5750614a00565b806040517f08c379a00000000000000000000000000000000000000000000000000000000081526004018080602001828103825283818151815260200191508051906020019080838360005b838110156149c55780820151818401526020810190506149aa565b50505050905090810190601f1680156149f25780820380516001836020036101000a031916815260200191505b509250505060405180910390fd5b6040517f08c379a0000000000000000000000000000000000000000000000000000000008152600401808060200182810382526034815260200180614e5c6034913960400191505060405180910390fd5b63f23a6e6160e01b7bffffffffffffffffffffffffffffffffffffffffffffffffffffffff1916817bffffffffffffffffffffffffffffffffffffffffffffffffffffffff191614614aee576040517f08c379a0000000000000000000000000000000000000000000000000000000008152600401808060200182810382526028815260200180614ed56028913960400191505060405180910390fd5b505b505050505050565b614b03838383614cfe565b600073ffffffffffffffffffffffffffffffffffffffff168373ffffffffffffffffffffffffffffffffffffffff161415614bcf57614b40611df9565b614b5a82614b4c611693565b613bd590919063ffffffff16565b1115614bce576040517f08c379a00000000000000000000000000000000000000000000000000000000081526004018080602001828103825260198152602001807f45524332304361707065643a206361702065786365656465640000000000000081525060200191505060405180910390fd5b5b505050565b600080823b905060008111915050919050565b6000614c0f836000018373ffffffffffffffffffffffffffffffffffffffff1660001b614d03565b905092915050565b6000614c3f836000018373ffffffffffffffffffffffffffffffffffffffff1660001b614d73565b905092915050565b600081836000018054905011614ca8576040517f08c379a0000000000000000000000000000000000000000000000000000000008152600401808060200182810382526022815260200180614e906022913960400191505060405180910390fd5b826000018281548110614cb757fe5b9060005260206000200154905092915050565b600080836001016000848152602001908152602001600020541415905092915050565b600081600001805490509050919050565b505050565b6000614d0f8383614cca565b614d68578260000182908060018154018082558091505060019003906000526020600020016000909190919091505582600001805490508360010160008481526020019081526020016000208190555060019050614d6d565b600090505b92915050565b60008083600101600084815260200190815260200160002054905060008114614e4f5760006001820390506000600186600001805490500390506000866000018281548110614dbe57fe5b9060005260206000200154905080876000018481548110614ddb57fe5b9060005260206000200181905550600183018760010160008381526020019081526020016000208190555086600001805480614e1357fe5b60019003818190600052602060002001600090559055866001016000878152602001908152602001600020600090556001945050505050614e55565b60009150505b9291505056fe455243313135353a207472616e7366657220746f206e6f6e2045524331313535526563656976657220696d706c656d656e746572456e756d657261626c655365743a20696e646578206f7574206f6620626f756e647345524332303a207472616e7366657220746f20746865207a65726f2061646472657373455243313135353a204552433131353552656365697665722072656a656374656420746f6b656e73416363657373436f6e74726f6c3a2073656e646572206d75737420626520616e2061646d696e20746f206772616e744e6f7420656e6f75676820756e6d696e74656420626f6e647320746f20636f766572206465706f736974455243313135353a2062616c616e636520717565727920666f7220746865207a65726f20616464726573734f776e61626c653a206e6577206f776e657220697320746865207a65726f206164647265737345524332303a20617070726f766520746f20746865207a65726f206164647265737363616e6e6f74207769746864726177206d6f7265207468616e20697320696e207472656173757279455243313135353a2063616c6c6572206973206e6f74206f776e6572206e6f7220617070726f76656445524332303a207472616e7366657220616d6f756e7420657863656564732062616c616e63654d6178206261746368207769746864726177616c206973203120746f74616c20746f6b656e416363657373436f6e74726f6c3a2073656e646572206d75737420626520616e2061646d696e20746f207265766f6b6543616e6e6f7420616464206d6f726520746f205472656173757279207468616e20657869737473455243313135353a207472616e7366657220746f20746865207a65726f2061646472657373455243313135353a207472616e736665722063616c6c6572206973206e6f74206f776e6572206e6f7220617070726f766564455243313135353a20696e73756666696369656e742062616c616e636520666f72207472616e7366657243616e6e6f74207769746864726177206d6f726520746f206261746368207468616e20697320617661696c61626c6520696e20747265617375727945524332303a207472616e7366657220616d6f756e74206578636565647320616c6c6f77616e636545524332303a207472616e736665722066726f6d20746865207a65726f206164647265737345524332303a20617070726f76652066726f6d20746865207a65726f2061646472657373455243313135353a2073657474696e6720617070726f76616c2073746174757320666f722073656c66455243313135353a206163636f756e747320616e6420696473206c656e677468206d69736d61746368455243313135353a2069647320616e6420616d6f756e7473206c656e677468206d69736d61746368455243313135353a206d696e7420746f20746865207a65726f206164647265737345524332303a2064656372656173656420616c6c6f77616e63652062656c6f77207a65726f416363657373436f6e74726f6c3a2063616e206f6e6c792072656e6f756e636520726f6c657320666f722073656c66a2646970667358221220366a16a64509e53011494a15f50d039a4908d909e3d8ffa189bc549a924da3a964736f6c63430006020033",
  "source": "// SPDX-License-Identifier: MIT\npragma solidity >=0.4.22 <0.9.0;\n\nimport './ERC20Treasury.sol';\nimport '@openzeppelin/contracts/token/ERC1155/IERC1155MetadataURI.sol';\nimport '@openzeppelin/contracts/token/ERC1155/ERC1155.sol';\n\ncontract Replatform is ERC20Treasury, ERC1155{ \n\n  constructor(string memory nameOfTreasury, \n              string memory symbolOfTreasury, \n              uint256 cappedSupplyOfTreasury,\n              uint256 initialAvailableSupplyOfTreasury) \n  ERC20Treasury(nameOfTreasury, symbolOfTreasury, cappedSupplyOfTreasury, initialAvailableSupplyOfTreasury)\n  ERC1155(\"./../URI/URI.json\") public {}\n\n\n    function batch(address to, uint256 id, uint256 amount, bytes memory data) public batchOwner(){\n      require(amount <= totalTreasury(), \"Cannot withdraw more to batch than is available in treasury\");\n      require(amount <= 1, \"1 per wallet\");\n      require(_partition[to] == 0);\n      withdrawFromTreasuryToBatch(amount);\n      ERC1155._mint(to, id, amount, data);\n    }\n    \n  \n  \n}\n",
  "sourcePath": "C:/replatform/contracts/Replatform.sol",
  "compiler": {
    "name": "solc",
    "version": "0.6.2+commit.bacdbe57.Emscripten.clang"
  },
  "schemaVersion": "3.3.3",
  "updatedAt": "2021-02-11T20:46:29.624Z",
  "devdoc": {
    "methods": {
      "allowance(address,address)": {
        "details": "See {IERC20-allowance}."
      },
      "approve(address,uint256)": {
        "details": "See {IERC20-approve}.     * Requirements:     * - `spender` cannot be the zero address."
      },
      "balanceOf(address)": {
        "details": "See {IERC20-balanceOf}."
      },
      "balanceOf(address,uint256)": {
        "details": "See {IERC1155-balanceOf}.     * Requirements:     * - `account` cannot be the zero address."
      },
      "balanceOfBatch(address[],uint256[])": {
        "details": "See {IERC1155-balanceOfBatch}.     * Requirements:     * - `accounts` and `ids` must have the same length."
      },
      "cap()": {
        "details": "Returns the cap on the token's total supply."
      },
      "decimals()": {
        "details": "Returns the number of decimals used to get its user representation. For example, if `decimals` equals `2`, a balance of `505` tokens should be displayed to a user as `5,05` (`505 / 10 ** 2`).     * Tokens usually opt for a value of 18, imitating the relationship between Ether and Wei. This is the value {ERC20} uses, unless {_setupDecimals} is called.     * NOTE: This information is only used for _display_ purposes: it in no way affects any of the arithmetic of the contract, including {IERC20-balanceOf} and {IERC20-transfer}."
      },
      "decreaseAllowance(address,uint256)": {
        "details": "Atomically decreases the allowance granted to `spender` by the caller.     * This is an alternative to {approve} that can be used as a mitigation for problems described in {IERC20-approve}.     * Emits an {Approval} event indicating the updated allowance.     * Requirements:     * - `spender` cannot be the zero address. - `spender` must have allowance for the caller of at least `subtractedValue`."
      },
      "getRoleAdmin(bytes32)": {
        "details": "Returns the admin role that controls `role`. See {grantRole} and {revokeRole}.     * To change a role's admin, use {_setRoleAdmin}."
      },
      "getRoleMember(bytes32,uint256)": {
        "details": "Returns one of the accounts that have `role`. `index` must be a value between 0 and {getRoleMemberCount}, non-inclusive.     * Role bearers are not sorted in any particular way, and their ordering may change at any point.     * WARNING: When using {getRoleMember} and {getRoleMemberCount}, make sure you perform all queries on the same block. See the following https://forum.openzeppelin.com/t/iterating-over-elements-on-enumerableset-in-openzeppelin-contracts/2296[forum post] for more information."
      },
      "getRoleMemberCount(bytes32)": {
        "details": "Returns the number of accounts that have `role`. Can be used together with {getRoleMember} to enumerate all bearers of a role."
      },
      "grantRole(bytes32,address)": {
        "details": "Grants `role` to `account`.     * If `account` had not been already granted `role`, emits a {RoleGranted} event.     * Requirements:     * - the caller must have ``role``'s admin role."
      },
      "hasRole(bytes32,address)": {
        "details": "Returns `true` if `account` has been granted `role`."
      },
      "increaseAllowance(address,uint256)": {
        "details": "Atomically increases the allowance granted to `spender` by the caller.     * This is an alternative to {approve} that can be used as a mitigation for problems described in {IERC20-approve}.     * Emits an {Approval} event indicating the updated allowance.     * Requirements:     * - `spender` cannot be the zero address."
      },
      "isApprovedForAll(address,address)": {
        "details": "See {IERC1155-isApprovedForAll}."
      },
      "name()": {
        "details": "Returns the name of the token."
      },
      "owner()": {
        "details": "Returns the address of the current owner."
      },
      "renounceOwnership()": {
        "details": "Leaves the contract without owner. It will not be possible to call `onlyOwner` functions anymore. Can only be called by the current owner.     * NOTE: Renouncing ownership will leave the contract without an owner, thereby removing any functionality that is only available to the owner."
      },
      "renounceRole(bytes32,address)": {
        "details": "Revokes `role` from the calling account.     * Roles are often managed via {grantRole} and {revokeRole}: this function's purpose is to provide a mechanism for accounts to lose their privileges if they are compromised (such as when a trusted device is misplaced).     * If the calling account had been granted `role`, emits a {RoleRevoked} event.     * Requirements:     * - the caller must be `account`."
      },
      "revokeRole(bytes32,address)": {
        "details": "Revokes `role` from `account`.     * If `account` had been granted `role`, emits a {RoleRevoked} event.     * Requirements:     * - the caller must have ``role``'s admin role."
      },
      "safeBatchTransferFrom(address,address,uint256[],uint256[],bytes)": {
        "details": "See {IERC1155-safeBatchTransferFrom}."
      },
      "safeTransferFrom(address,address,uint256,uint256,bytes)": {
        "details": "See {IERC1155-safeTransferFrom}."
      },
      "setApprovalForAll(address,bool)": {
        "details": "See {IERC1155-setApprovalForAll}."
      },
      "supportsInterface(bytes4)": {
        "details": "See {IERC165-supportsInterface}.     * Time complexity O(1), guaranteed to always use less than 30 000 gas."
      },
      "symbol()": {
        "details": "Returns the symbol of the token, usually a shorter version of the name."
      },
      "totalSupply()": {
        "details": "See {IERC20-totalSupply}."
      },
      "transfer(address,uint256)": {
        "details": "See {IERC20-transfer}.     * Requirements:     * - `recipient` cannot be the zero address. - the caller must have a balance of at least `amount`."
      },
      "transferFrom(address,address,uint256)": {
        "details": "See {IERC20-transferFrom}.     * Emits an {Approval} event indicating the updated allowance. This is not required by the EIP. See the note at the beginning of {ERC20}.     * Requirements:     * - `sender` and `recipient` cannot be the zero address. - `sender` must have a balance of at least `amount`. - the caller must have allowance for ``sender``'s tokens of at least `amount`."
      },
      "transferOwnership(address)": {
        "details": "Transfers ownership of the contract to a new account (`newOwner`). Can only be called by the current owner."
      },
      "uri(uint256)": {
        "details": "See {IERC1155MetadataURI-uri}.     * This implementation returns the same URI for *all* token types. It relies on the token type ID substitution mechanism https://eips.ethereum.org/EIPS/eip-1155#metadata[defined in the EIP].     * Clients calling this function must replace the `\\{id\\}` substring with the actual token type ID."
      }
    }
  },
  "userdoc": {
    "methods": {
      "mintBonds(uint256)": {
        "notice": "Reduces number of available Bonds for DEX but increases Treasury  Requires that unminted bonds be greater than the amount requested. mints bonds adds bonds to available treasury"
      },
      "totalBonds()": {
        "notice": "Bonds represent the DEX swappable token. Bonds are the supply of ERC20 that has not been locked for distribution. "
      },
      "totalTreasury()": {
        "notice": "Total treasury is a portion of the total cap of ERC20 token. ap() - totalTreaury() = Bonds() onds represent the DEX swappable token. Bonds are the supply of ERC20 that has not been locked for distribution."
      }
    }
  }
}